{
  "_format": "hh-sol-artifact-1",
  "contractName": "FreelanceMarketplace",
  "sourceName": "contracts/core/FreelanceMarketplace.sol",
  "abi": [
    {
      "inputs": [
        {
          "internalType": "address",
          "name": "initialOwner",
          "type": "address"
        }
      ],
      "stateMutability": "nonpayable",
      "type": "constructor"
    },
    {
      "anonymous": false,
      "inputs": [
        {
          "indexed": true,
          "internalType": "uint256",
          "name": "projectId",
          "type": "uint256"
        },
        {
          "indexed": false,
          "internalType": "address",
          "name": "initiator",
          "type": "address"
        }
      ],
      "name": "DisputeCreated",
      "type": "event"
    },
    {
      "anonymous": false,
      "inputs": [
        {
          "indexed": true,
          "internalType": "uint256",
          "name": "projectId",
          "type": "uint256"
        },
        {
          "indexed": true,
          "internalType": "uint256",
          "name": "milestoneId",
          "type": "uint256"
        },
        {
          "indexed": false,
          "internalType": "uint256",
          "name": "amount",
          "type": "uint256"
        }
      ],
      "name": "MilestoneCreated",
      "type": "event"
    },
    {
      "anonymous": false,
      "inputs": [
        {
          "indexed": true,
          "internalType": "uint256",
          "name": "projectId",
          "type": "uint256"
        },
        {
          "indexed": true,
          "internalType": "uint256",
          "name": "milestoneId",
          "type": "uint256"
        },
        {
          "indexed": false,
          "internalType": "address",
          "name": "freelancer",
          "type": "address"
        },
        {
          "indexed": false,
          "internalType": "uint256",
          "name": "amount",
          "type": "uint256"
        }
      ],
      "name": "MilestoneFundsReleased",
      "type": "event"
    },
    {
      "anonymous": false,
      "inputs": [
        {
          "indexed": true,
          "internalType": "uint256",
          "name": "milestoneId",
          "type": "uint256"
        },
        {
          "indexed": false,
          "internalType": "enum IFreelanceMarketplace.MilestoneStatus",
          "name": "status",
          "type": "uint8"
        }
      ],
      "name": "MilestoneStatusUpdated",
      "type": "event"
    },
    {
      "anonymous": false,
      "inputs": [
        {
          "indexed": true,
          "internalType": "address",
          "name": "previousOwner",
          "type": "address"
        },
        {
          "indexed": true,
          "internalType": "address",
          "name": "newOwner",
          "type": "address"
        }
      ],
      "name": "OwnershipTransferred",
      "type": "event"
    },
    {
      "anonymous": false,
      "inputs": [
        {
          "indexed": true,
          "internalType": "uint256",
          "name": "projectId",
          "type": "uint256"
        },
        {
          "indexed": true,
          "internalType": "address",
          "name": "client",
          "type": "address"
        },
        {
          "indexed": false,
          "internalType": "string",
          "name": "title",
          "type": "string"
        },
        {
          "indexed": false,
          "internalType": "uint256",
          "name": "totalBudget",
          "type": "uint256"
        }
      ],
      "name": "ProjectCreated",
      "type": "event"
    },
    {
      "anonymous": false,
      "inputs": [
        {
          "indexed": true,
          "internalType": "uint256",
          "name": "projectId",
          "type": "uint256"
        },
        {
          "indexed": false,
          "internalType": "enum IFreelanceMarketplace.ProjectStatus",
          "name": "status",
          "type": "uint8"
        }
      ],
      "name": "ProjectStatusUpdated",
      "type": "event"
    },
    {
      "anonymous": false,
      "inputs": [
        {
          "indexed": true,
          "internalType": "uint256",
          "name": "projectId",
          "type": "uint256"
        },
        {
          "indexed": true,
          "internalType": "uint256",
          "name": "proposalId",
          "type": "uint256"
        },
        {
          "indexed": true,
          "internalType": "address",
          "name": "freelancer",
          "type": "address"
        }
      ],
      "name": "ProposalAccepted",
      "type": "event"
    },
    {
      "anonymous": false,
      "inputs": [
        {
          "indexed": true,
          "internalType": "uint256",
          "name": "projectId",
          "type": "uint256"
        },
        {
          "indexed": true,
          "internalType": "uint256",
          "name": "proposalId",
          "type": "uint256"
        },
        {
          "indexed": true,
          "internalType": "address",
          "name": "freelancer",
          "type": "address"
        }
      ],
      "name": "ProposalSubmitted",
      "type": "event"
    },
    {
      "inputs": [
        {
          "internalType": "uint256",
          "name": "projectId",
          "type": "uint256"
        },
        {
          "internalType": "uint256",
          "name": "proposalId",
          "type": "uint256"
        }
      ],
      "name": "acceptProposal",
      "outputs": [],
      "stateMutability": "nonpayable",
      "type": "function"
    },
    {
      "inputs": [
        {
          "internalType": "uint256",
          "name": "projectId",
          "type": "uint256"
        },
        {
          "internalType": "string",
          "name": "description",
          "type": "string"
        },
        {
          "internalType": "uint256",
          "name": "amount",
          "type": "uint256"
        },
        {
          "internalType": "uint256",
          "name": "deadline",
          "type": "uint256"
        }
      ],
      "name": "addMilestone",
      "outputs": [
        {
          "internalType": "uint256",
          "name": "",
          "type": "uint256"
        }
      ],
      "stateMutability": "nonpayable",
      "type": "function"
    },
    {
      "inputs": [
        {
          "internalType": "uint256",
          "name": "projectId",
          "type": "uint256"
        },
        {
          "internalType": "uint256",
          "name": "milestoneId",
          "type": "uint256"
        }
      ],
      "name": "approveMilestone",
      "outputs": [],
      "stateMutability": "nonpayable",
      "type": "function"
    },
    {
      "inputs": [
        {
          "internalType": "uint256",
          "name": "projectId",
          "type": "uint256"
        },
        {
          "internalType": "uint256",
          "name": "milestoneId",
          "type": "uint256"
        }
      ],
      "name": "completeMilestone",
      "outputs": [],
      "stateMutability": "nonpayable",
      "type": "function"
    },
    {
      "inputs": [
        {
          "internalType": "uint256",
          "name": "projectId",
          "type": "uint256"
        },
        {
          "internalType": "string",
          "name": "reason",
          "type": "string"
        }
      ],
      "name": "createDispute",
      "outputs": [],
      "stateMutability": "nonpayable",
      "type": "function"
    },
    {
      "inputs": [
        {
          "internalType": "string",
          "name": "title",
          "type": "string"
        },
        {
          "internalType": "string",
          "name": "description",
          "type": "string"
        },
        {
          "internalType": "uint256",
          "name": "totalBudget",
          "type": "uint256"
        },
        {
          "internalType": "uint256",
          "name": "deadline",
          "type": "uint256"
        }
      ],
      "name": "createProject",
      "outputs": [
        {
          "internalType": "uint256",
          "name": "",
          "type": "uint256"
        }
      ],
      "stateMutability": "payable",
      "type": "function"
    },
    {
      "inputs": [
        {
          "internalType": "address",
          "name": "client",
          "type": "address"
        }
      ],
      "name": "getClientProjects",
      "outputs": [
        {
          "internalType": "uint256[]",
          "name": "",
          "type": "uint256[]"
        }
      ],
      "stateMutability": "view",
      "type": "function"
    },
    {
      "inputs": [],
      "name": "getDisputeResolution",
      "outputs": [
        {
          "internalType": "address",
          "name": "",
          "type": "address"
        }
      ],
      "stateMutability": "view",
      "type": "function"
    },
    {
      "inputs": [],
      "name": "getEscrowContract",
      "outputs": [
        {
          "internalType": "address",
          "name": "",
          "type": "address"
        }
      ],
      "stateMutability": "view",
      "type": "function"
    },
    {
      "inputs": [
        {
          "internalType": "address",
          "name": "freelancer",
          "type": "address"
        }
      ],
      "name": "getFreelancerProjects",
      "outputs": [
        {
          "internalType": "uint256[]",
          "name": "",
          "type": "uint256[]"
        }
      ],
      "stateMutability": "view",
      "type": "function"
    },
    {
      "inputs": [
        {
          "internalType": "uint256",
          "name": "milestoneId",
          "type": "uint256"
        }
      ],
      "name": "getMilestone",
      "outputs": [
        {
          "components": [
            {
              "internalType": "uint256",
              "name": "id",
              "type": "uint256"
            },
            {
              "internalType": "uint256",
              "name": "projectId",
              "type": "uint256"
            },
            {
              "internalType": "string",
              "name": "description",
              "type": "string"
            },
            {
              "internalType": "uint256",
              "name": "amount",
              "type": "uint256"
            },
            {
              "internalType": "uint256",
              "name": "deadline",
              "type": "uint256"
            },
            {
              "internalType": "enum IFreelanceMarketplace.MilestoneStatus",
              "name": "status",
              "type": "uint8"
            }
          ],
          "internalType": "struct IFreelanceMarketplace.Milestone",
          "name": "",
          "type": "tuple"
        }
      ],
      "stateMutability": "view",
      "type": "function"
    },
    {
      "inputs": [
        {
          "internalType": "uint256",
          "name": "projectId",
          "type": "uint256"
        }
      ],
      "name": "getProject",
      "outputs": [
        {
          "components": [
            {
              "internalType": "uint256",
              "name": "id",
              "type": "uint256"
            },
            {
              "internalType": "address",
              "name": "client",
              "type": "address"
            },
            {
              "internalType": "address",
              "name": "freelancer",
              "type": "address"
            },
            {
              "internalType": "string",
              "name": "title",
              "type": "string"
            },
            {
              "internalType": "string",
              "name": "description",
              "type": "string"
            },
            {
              "internalType": "uint256",
              "name": "totalBudget",
              "type": "uint256"
            },
            {
              "internalType": "uint256",
              "name": "createdAt",
              "type": "uint256"
            },
            {
              "internalType": "uint256",
              "name": "deadline",
              "type": "uint256"
            },
            {
              "internalType": "enum IFreelanceMarketplace.ProjectStatus",
              "name": "status",
              "type": "uint8"
            },
            {
              "internalType": "uint256[]",
              "name": "milestoneIds",
              "type": "uint256[]"
            }
          ],
          "internalType": "struct IFreelanceMarketplace.Project",
          "name": "",
          "type": "tuple"
        }
      ],
      "stateMutability": "view",
      "type": "function"
    },
    {
      "inputs": [
        {
          "internalType": "uint256",
          "name": "projectId",
          "type": "uint256"
        }
      ],
      "name": "getProjectProposals",
      "outputs": [
        {
          "internalType": "uint256[]",
          "name": "",
          "type": "uint256[]"
        }
      ],
      "stateMutability": "view",
      "type": "function"
    },
    {
      "inputs": [
        {
          "internalType": "uint256",
          "name": "proposalId",
          "type": "uint256"
        }
      ],
      "name": "getProposal",
      "outputs": [
        {
          "components": [
            {
              "internalType": "uint256",
              "name": "id",
              "type": "uint256"
            },
            {
              "internalType": "uint256",
              "name": "projectId",
              "type": "uint256"
            },
            {
              "internalType": "address",
              "name": "freelancer",
              "type": "address"
            },
            {
              "internalType": "string",
              "name": "description",
              "type": "string"
            },
            {
              "internalType": "uint256",
              "name": "estimatedCompletionTime",
              "type": "uint256"
            },
            {
              "internalType": "uint256",
              "name": "proposedBudget",
              "type": "uint256"
            },
            {
              "internalType": "bool",
              "name": "accepted",
              "type": "bool"
            }
          ],
          "internalType": "struct IFreelanceMarketplace.Proposal",
          "name": "",
          "type": "tuple"
        }
      ],
      "stateMutability": "view",
      "type": "function"
    },
    {
      "inputs": [],
      "name": "getProtocolFeeRate",
      "outputs": [
        {
          "internalType": "uint256",
          "name": "",
          "type": "uint256"
        }
      ],
      "stateMutability": "view",
      "type": "function"
    },
    {
      "inputs": [],
      "name": "getReputationSystem",
      "outputs": [
        {
          "internalType": "address",
          "name": "",
          "type": "address"
        }
      ],
      "stateMutability": "view",
      "type": "function"
    },
    {
      "inputs": [],
      "name": "owner",
      "outputs": [
        {
          "internalType": "address",
          "name": "",
          "type": "address"
        }
      ],
      "stateMutability": "view",
      "type": "function"
    },
    {
      "inputs": [
        {
          "internalType": "address",
          "name": "disputeResolutionAddress",
          "type": "address"
        }
      ],
      "name": "setDisputeResolution",
      "outputs": [],
      "stateMutability": "nonpayable",
      "type": "function"
    },
    {
      "inputs": [
        {
          "internalType": "address",
          "name": "escrowAddress",
          "type": "address"
        }
      ],
      "name": "setEscrowContract",
      "outputs": [],
      "stateMutability": "nonpayable",
      "type": "function"
    },
    {
      "inputs": [
        {
          "internalType": "uint256",
          "name": "feeRate",
          "type": "uint256"
        }
      ],
      "name": "setProtocolFeeRate",
      "outputs": [],
      "stateMutability": "nonpayable",
      "type": "function"
    },
    {
      "inputs": [
        {
          "internalType": "address",
          "name": "reputationAddress",
          "type": "address"
        }
      ],
      "name": "setReputationSystem",
      "outputs": [],
      "stateMutability": "nonpayable",
      "type": "function"
    },
    {
      "inputs": [
        {
          "internalType": "uint256",
          "name": "projectId",
          "type": "uint256"
        },
        {
          "internalType": "uint256",
          "name": "milestoneId",
          "type": "uint256"
        }
      ],
      "name": "startMilestone",
      "outputs": [],
      "stateMutability": "nonpayable",
      "type": "function"
    },
    {
      "inputs": [
        {
          "internalType": "uint256",
          "name": "projectId",
          "type": "uint256"
        },
        {
          "internalType": "string",
          "name": "description",
          "type": "string"
        },
        {
          "internalType": "uint256",
          "name": "estimatedCompletionTime",
          "type": "uint256"
        },
        {
          "internalType": "uint256",
          "name": "proposedBudget",
          "type": "uint256"
        }
      ],
      "name": "submitProposal",
      "outputs": [
        {
          "internalType": "uint256",
          "name": "",
          "type": "uint256"
        }
      ],
      "stateMutability": "nonpayable",
      "type": "function"
    },
    {
      "inputs": [
        {
          "internalType": "address",
          "name": "newOwner",
          "type": "address"
        }
      ],
      "name": "transferOwnership",
      "outputs": [],
      "stateMutability": "nonpayable",
      "type": "function"
    }
  ],
  "bytecode": "0x608060405260fa6008553480156200001657600080fd5b50604051620030c3380380620030c38339810160408190526200003991620000be565b6001600160a01b038116620000945760405162461bcd60e51b815260206004820152601560248201527f496e76616c6964206f776e657220616464726573730000000000000000000000604482015260640160405180910390fd5b600080546001600160a01b0319166001600160a01b039290921691909117905560018055620000f0565b600060208284031215620000d157600080fd5b81516001600160a01b0381168114620000e957600080fd5b9392505050565b612fc380620001006000396000f3fe60806040526004361061014b5760003560e01c80639c32c447116100b6578063e992dca71161006f578063e992dca7146103d1578063f0f3f2c8146103ef578063f2fde38b1461041c578063f326206b1461043c578063f42375b51461045c578063f7fab94f1461047c57600080fd5b80639c32c44714610306578063b13aa2d614610326578063b909acc514610346578063c7f758a814610364578063d166beea14610391578063e1e1d5ca146103b157600080fd5b8063688253161161010857806368825316146102355780638da5cb5b1461025557806393d17e251461028757806394ba9709146102b5578063960055cb146102c85780639a8b3d8f146102e657600080fd5b8063026e65121461015057806320913da5146101725780632442e1cb146101925780632c2ee6e3146101c857806331143cee146101f55780633220d53014610215575b600080fd5b34801561015c57600080fd5b5061017061016b3660046126c5565b610491565b005b34801561017e57600080fd5b5061017061018d3660046126f5565b6104e6565b34801561019e57600080fd5b506101b26101ad366004612717565b610899565b6040516101bf91906127a0565b60405180910390f35b3480156101d457600080fd5b506101e86101e33660046126c5565b6109de565b6040516101bf9190612800565b34801561020157600080fd5b506101706102103660046126c5565b610a4a565b34801561022157600080fd5b506101706102303660046126f5565b610a96565b34801561024157600080fd5b506101e8610250366004612717565b610d2d565b34801561026157600080fd5b506000546001600160a01b03165b6040516001600160a01b0390911681526020016101bf565b34801561029357600080fd5b506102a76102a236600461288d565b610dbb565b6040519081526020016101bf565b6102a76102c33660046128eb565b6111c3565b3480156102d457600080fd5b506007546001600160a01b031661026f565b3480156102f257600080fd5b506101e86103013660046126c5565b61142a565b34801561031257600080fd5b50610170610321366004612969565b611494565b34801561033257600080fd5b50610170610341366004612717565b611836565b34801561035257600080fd5b506005546001600160a01b031661026f565b34801561037057600080fd5b5061038461037f366004612717565b6118af565b6040516101bf91906129b5565b34801561039d57600080fd5b506102a76103ac36600461288d565b611a54565b3480156103bd57600080fd5b506101706103cc3660046126f5565b611dd0565b3480156103dd57600080fd5b506006546001600160a01b031661026f565b3480156103fb57600080fd5b5061040f61040a366004612717565b612085565b6040516101bf9190612a6f565b34801561042857600080fd5b506101706104373660046126c5565b6122db565b34801561044857600080fd5b506101706104573660046126f5565b6123ab565b34801561046857600080fd5b506101706104773660046126c5565b6125a0565b34801561048857600080fd5b506008546102a7565b6000546001600160a01b031633146104c45760405162461bcd60e51b81526004016104bb90612b44565b60405180910390fd5b600780546001600160a01b0319166001600160a01b0392909216919091179055565b6002600154036105085760405162461bcd60e51b81526004016104bb90612b85565b600260015560008281526009602052604090208054831461053b5760405162461bcd60e51b81526004016104bb90612bbc565b60018101546001600160a01b031633146105a25760405162461bcd60e51b815260206004820152602260248201527f4f6e6c7920636c69656e742063616e20617070726f7665206d696c6573746f6e604482015261657360f01b60648201526084016104bb565b6001600882015460ff1660048111156105bd576105bd612776565b146105da5760405162461bcd60e51b81526004016104bb90612bec565b6000828152600a60205260409020805483146106085760405162461bcd60e51b81526004016104bb90612c23565b8381600101541461062b5760405162461bcd60e51b81526004016104bb90612c5a565b6002600582015460ff16600381111561064657610646612776565b146106935760405162461bcd60e51b815260206004820152601b60248201527f4d696c6573746f6e65206d75737420626520636f6d706c65746564000000000060448201526064016104bb565b60055460405163764b5e1360e11b815260048101869052602481018590526000916001600160a01b03169063ec96bc2690604401602060405180830381865afa1580156106e4573d6000803e3d6000fd5b505050506040513d601f19601f820116820180604052508101906107089190612c9b565b600554604051633b594c5960e21b8152600481018390529192506001600160a01b03169063ed65316490602401600060405180830381600087803b15801561074f57600080fd5b505af1158015610763573d6000803e3d6000fd5b506001925060009150505b60098501548110156107e8576002600a600087600901848154811061079557610795612cb4565b6000918252602080832090910154835282019290925260400190206005015460ff1660038111156107c8576107c8612776565b146107d657600091506107e8565b806107e081612ce0565b91505061076e565b50801561083b5760088401805460ff1916600290811790915560405187917f8fb6fda973f304b2834c4147004045448416c05b253872373ac5b19f4a5b7a5d916108329190612cf9565b60405180910390a25b60028401546003840154604080516001600160a01b0390931683526020830191909152869188917f7e517ed93b91cc7fb27aaf1e550bd61b9f81ad18f867180b6ada922e58e40920910160405180910390a350506001805550505050565b6108a1612609565b6000828152600a602052604090205482146108ce5760405162461bcd60e51b81526004016104bb90612c23565b600a60008381526020019081526020016000206040518060c0016040529081600082015481526020016001820154815260200160028201805461091090612d0d565b80601f016020809104026020016040519081016040528092919081815260200182805461093c90612d0d565b80156109895780601f1061095e57610100808354040283529160200191610989565b820191906000526020600020905b81548152906001019060200180831161096c57829003601f168201915b5050509183525050600382810154602083015260048301546040830152600583015460609092019160ff16908111156109c4576109c4612776565b60038111156109d5576109d5612776565b90525092915050565b6001600160a01b0381166000908152600d6020908152604091829020805483518184028101840190945280845260609392830182828015610a3e57602002820191906000526020600020905b815481526020019060010190808311610a2a575b50505050509050919050565b6000546001600160a01b03163314610a745760405162461bcd60e51b81526004016104bb90612b44565b600680546001600160a01b0319166001600160a01b0392909216919091179055565b600260015403610ab85760405162461bcd60e51b81526004016104bb90612b85565b6002600155600082815260096020526040902080548314610aeb5760405162461bcd60e51b81526004016104bb90612bbc565b60028101546001600160a01b03163314610b535760405162461bcd60e51b8152602060048201526024808201527f4f6e6c7920667265656c616e6365722063616e207374617274206d696c6573746044820152636f6e657360e01b60648201526084016104bb565b6001600882015460ff166004811115610b6e57610b6e612776565b14610b8b5760405162461bcd60e51b81526004016104bb90612bec565b6000828152600a6020526040902080548314610bb95760405162461bcd60e51b81526004016104bb90612c23565b83816001015414610bdc5760405162461bcd60e51b81526004016104bb90612c5a565b6000600582015460ff166003811115610bf757610bf7612776565b14610c445760405162461bcd60e51b815260206004820152601960248201527f4d696c6573746f6e65206d7573742062652070656e64696e670000000000000060448201526064016104bb565b6005818101805460ff1916600190811790915590546003830154918401546002850154604051630f242cd760e31b815260048101899052602481018890526001600160a01b039283166044820152908216606482015291169163792166b89160840160206040518083038185885af1158015610cc4573d6000803e3d6000fd5b50505050506040513d601f19601f82011682018060405250810190610ce99190612c9b565b50827f01f70de68eefd8bb6ac103904ea62d23d60d22b41492b917b1f8cce56dc156de6001604051610d1b9190612d47565b60405180910390a25050600180555050565b6000818152600960205260409020546060908214610d5d5760405162461bcd60e51b81526004016104bb90612bbc565b6000828152600e602090815260409182902080548351818402810184019094528084529091830182828015610a3e5760200282019190600052602060002090815481526020019060010190808311610a2a5750505050509050919050565b6000600260015403610ddf5760405162461bcd60e51b81526004016104bb90612b85565b6002600155600086815260096020526040902080548714610e125760405162461bcd60e51b81526004016104bb90612bbc565b60018101546001600160a01b03163314610e6e5760405162461bcd60e51b815260206004820152601e60248201527f4f6e6c7920636c69656e742063616e20616464206d696c6573746f6e6573000060448201526064016104bb565b6000600882015460ff166004811115610e8957610e89612776565b1480610ead57506001600882015460ff166004811115610eab57610eab612776565b145b610f055760405162461bcd60e51b815260206004820152602360248201527f50726f6a656374206d757374206265206f70656e206f7220696e2070726f677260448201526265737360e81b60648201526084016104bb565b84610f225760405162461bcd60e51b81526004016104bb90612d55565b60008411610f725760405162461bcd60e51b815260206004820152601d60248201527f416d6f756e74206d7573742062652067726561746572207468616e203000000060448201526064016104bb565b428311610fc15760405162461bcd60e51b815260206004820152601e60248201527f446561646c696e65206d75737420626520696e2074686520667574757265000060448201526064016104bb565b806007015483111561102f5760405162461bcd60e51b815260206004820152603160248201527f4d696c6573746f6e6520646561646c696e652063616e6e6f74206578636565646044820152702070726f6a65637420646561646c696e6560781b60648201526084016104bb565b6000805b600983015481101561109457600a600084600901838154811061105857611058612cb4565b9060005260206000200154815260200190815260200160002060030154826110809190612d8c565b91508061108c81612ce0565b915050611033565b5060058201546110a48683612d8c565b11156111085760405162461bcd60e51b815260206004820152602d60248201527f546f74616c206d696c6573746f6e6520616d6f756e747320657863656564207060448201526c1c9bda9958dd08189d5919d95d609a1b60648201526084016104bb565b61111260036125ec565b600061111d60035490565b6000818152600a60205260409020818155600181018b905590915060028101611147898b83612e04565b50600381018790556004810186905560058101805460ff1916905560098401805460018101825560009182526020918290200183905560405188815283918c917fb59c2d823e6ca395c24829d80f43a97d9c6fd711596372c5a4663af872f4b9d2910160405180910390a3506001805598975050505050505050565b60006002600154036111e75760405162461bcd60e51b81526004016104bb90612b85565b6002600155856112315760405162461bcd60e51b81526020600482015260156024820152745469746c652063616e6e6f7420626520656d70747960581b60448201526064016104bb565b8361124e5760405162461bcd60e51b81526004016104bb90612d55565b6000831161129e5760405162461bcd60e51b815260206004820152601d60248201527f427564676574206d7573742062652067726561746572207468616e203000000060448201526064016104bb565b4282116112ed5760405162461bcd60e51b815260206004820152601e60248201527f446561646c696e65206d75737420626520696e2074686520667574757265000060448201526064016104bb565b82341461133c5760405162461bcd60e51b815260206004820181905260248201527f53656e742076616c7565206d757374206d61746368207468652062756467657460448201526064016104bb565b61134660026125ec565b600061135160025490565b60008181526009602052604090208181556001810180546001600160a01b0319163317905590915060038101611388898b83612e04565b5060048101611398878983612e04565b50600581018590554260068201556007810184905560088101805460ff19169055336000818152600c60209081526040808320805460018101825590845291909220018490555183907f51d08cb6cfa640a387210fb69df925dfb70169ae7373f8ecd40b977b0c800d9a90611412908d908d908b90612eee565b60405180910390a35060018055979650505050505050565b6001600160a01b0381166000908152600c6020908152604091829020805483518184028101840190945280845260609392830182828015610a3e5760200282019190600052602060002090815481526020019060010190808311610a2a5750505050509050919050565b6002600154036114b65760405162461bcd60e51b81526004016104bb90612b85565b60026001556000838152600960205260409020805484146114e95760405162461bcd60e51b81526004016104bb90612bbc565b60018101546001600160a01b0316331480611510575060028101546001600160a01b031633145b6115725760405162461bcd60e51b815260206004820152602d60248201527f4f6e6c792070726f6a656374207061727469636970616e74732063616e20637260448201526c6561746520646973707574657360981b60648201526084016104bb565b6001600882015460ff16600481111561158d5761158d612776565b146115aa5760405162461bcd60e51b81526004016104bb90612bec565b816115f05760405162461bcd60e51b8152602060048201526016602482015275526561736f6e2063616e6e6f7420626520656d70747960501b60448201526064016104bb565b60088101805460ff191660041790556001810154600090336001600160a01b039091161461162b5760018201546001600160a01b031661163a565b60028201546001600160a01b03165b90506000805b600984015481101561173f576000600a600086600901848154811061166757611667612cb4565b9060005260206000200154815260200190815260200160002090506001600381111561169557611695612776565b600582015460ff1660038111156116ae576116ae612776565b14806116d257506002600582015460ff1660038111156116d0576116d0612776565b145b1561172c57805460058201805460ff1916600390811790915560405191945084917f01f70de68eefd8bb6ac103904ea62d23d60d22b41492b917b1f8cce56dc156de9161171e91612d47565b60405180910390a25061173f565b508061173781612ce0565b915050611640565b506007546040516348a9051d60e11b81526001600160a01b03909116906391520a3a90611778908990859087908b908b90600401612f12565b6020604051808303816000875af1158015611797573d6000803e3d6000fd5b505050506040513d601f19601f820116820180604052508101906117bb9190612c9b565b5060405133815286907f3c9db11b5587ddca19c48971a5bd5cb36500cd7d156815c6728cbc58ff9ac6bf9060200160405180910390a2857f8fb6fda973f304b2834c4147004045448416c05b253872373ac5b19f4a5b7a5d60046040516118229190612cf9565b60405180910390a250506001805550505050565b6000546001600160a01b031633146118605760405162461bcd60e51b81526004016104bb90612b44565b6103e88111156118aa5760405162461bcd60e51b81526020600482015260156024820152744665652063616e6e6f74206578636565642031302560581b60448201526064016104bb565b600855565b6118fa6040518060e00160405280600081526020016000815260200160006001600160a01b031681526020016060815260200160008152602001600081526020016000151581525090565b6000828152600b602052604090205482146119515760405162461bcd60e51b8152602060048201526017602482015276141c9bdc1bdcd85b08191bd95cc81b9bdd08195e1a5cdd604a1b60448201526064016104bb565b6000828152600b6020908152604091829020825160e0810184528154815260018201549281019290925260028101546001600160a01b0316928201929092526003820180549192916060840191906119a890612d0d565b80601f01602080910402602001604051908101604052809291908181526020018280546119d490612d0d565b8015611a215780601f106119f657610100808354040283529160200191611a21565b820191906000526020600020905b815481529060010190602001808311611a0457829003601f168201915b5050509183525050600482015460208201526005820154604082015260069091015460ff16151560609091015292915050565b6000600260015403611a785760405162461bcd60e51b81526004016104bb90612b85565b6002600155600086815260096020526040902080548714611aab5760405162461bcd60e51b81526004016104bb90612bbc565b6000600882015460ff166004811115611ac657611ac6612776565b14611ae35760405162461bcd60e51b81526004016104bb90612f4b565b60018101546001600160a01b03163303611b3f5760405162461bcd60e51b815260206004820152601e60248201527f436c69656e742063616e6e6f74207375626d69742070726f706f73616c73000060448201526064016104bb565b84611b5c5760405162461bcd60e51b81526004016104bb90612d55565b60008411611bc55760405162461bcd60e51b815260206004820152603060248201527f457374696d6174656420636f6d706c6574696f6e2074696d65206d757374206260448201526f0652067726561746572207468616e20360841b60648201526084016104bb565b60008311611c245760405162461bcd60e51b815260206004820152602660248201527f50726f706f73656420627564676574206d75737420626520677265617465722060448201526507468616e20360d41b60648201526084016104bb565b60005b6000888152600e6020526040902054811015611d02576000888152600e602052604081208054600b91839185908110611c6257611c62612cb4565b6000918252602080832090910154835282019290925260400190206002810154909150336001600160a01b039190911603611cef5760405162461bcd60e51b815260206004820152602760248201527f467265656c616e63657220616c7265616479207375626d6974746564206120706044820152661c9bdc1bdcd85b60ca1b60648201526084016104bb565b5080611cfa81612ce0565b915050611c27565b50611d0d60046125ec565b6000611d1860045490565b6000818152600b60205260409020818155600181018a90556002810180546001600160a01b0319163317905590915060038101611d56888a83612e04565b50600481018690556005810185905560068101805460ff191690556000898152600e60209081526040808320805460018101825590845291832090910184905551339184918c917f966cf093e76ae922a8f15d44dcf28a095f8f2e52ceaeb4c08557a0e9b7d518fa91a45060018055979650505050505050565b600260015403611df25760405162461bcd60e51b81526004016104bb90612b85565b6002600155600082815260096020526040902080548314611e255760405162461bcd60e51b81526004016104bb90612bbc565b60018101546001600160a01b03163314611e815760405162461bcd60e51b815260206004820181905260248201527f4f6e6c7920636c69656e742063616e206163636570742070726f706f73616c7360448201526064016104bb565b6000600882015460ff166004811115611e9c57611e9c612776565b14611eb95760405162461bcd60e51b81526004016104bb90612f4b565b6000828152600b6020526040902080548314611f115760405162461bcd60e51b8152602060048201526017602482015276141c9bdc1bdcd85b08191bd95cc81b9bdd08195e1a5cdd604a1b60448201526064016104bb565b83816001015414611f645760405162461bcd60e51b815260206004820181905260248201527f50726f706f73616c206973206e6f7420666f7220746869732070726f6a65637460448201526064016104bb565b600681015460ff1615611fb95760405162461bcd60e51b815260206004820152601960248201527f50726f706f73616c20616c72656164792061636365707465640000000000000060448201526064016104bb565b6002818101805491840180546001600160a01b0319166001600160a01b0393841617905560088401805460ff19908116600190811790925560068501805490911682179055815483166000908152600d6020908152604080832080549485018155835290822090920188905591549051921691859187917f1073cc4457a4ad6cba8e9d76cfdf6f9af900c002dcfff7b2db54f115a017f7b79190a4837f8fb6fda973f304b2834c4147004045448416c05b253872373ac5b19f4a5b7a5d6001604051610d1b9190612cf9565b61208d61264f565b60008281526009602052604090205482146120ba5760405162461bcd60e51b81526004016104bb90612bbc565b6000828152600960209081526040918290208251610140810184528154815260018201546001600160a01b039081169382019390935260028201549092169282019290925260038201805491929160608401919061211790612d0d565b80601f016020809104026020016040519081016040528092919081815260200182805461214390612d0d565b80156121905780601f1061216557610100808354040283529160200191612190565b820191906000526020600020905b81548152906001019060200180831161217357829003601f168201915b505050505081526020016004820180546121a990612d0d565b80601f01602080910402602001604051908101604052809291908181526020018280546121d590612d0d565b80156122225780601f106121f757610100808354040283529160200191612222565b820191906000526020600020905b81548152906001019060200180831161220557829003601f168201915b5050509183525050600582015460208201526006820154604082015260078201546060820152600882015460809091019060ff16600481111561226757612267612776565b600481111561227857612278612776565b8152602001600982018054806020026020016040519081016040528092919081815260200182805480156122cb57602002820191906000526020600020905b8154815260200190600101908083116122b7575b5050505050815250509050919050565b6000546001600160a01b031633146123055760405162461bcd60e51b81526004016104bb90612b44565b6001600160a01b03811661235b5760405162461bcd60e51b815260206004820152601d60248201527f4e6577206f776e657220697320746865207a65726f206164647265737300000060448201526064016104bb565b600080546001600160a01b038381166001600160a01b0319831681178455604051919092169283917f8be0079c531659141344cd1fd0a4f28419497f9722a3daafe3b4186f6b6457e09190a35050565b6002600154036123cd5760405162461bcd60e51b81526004016104bb90612b85565b60026001556000828152600960205260409020805483146124005760405162461bcd60e51b81526004016104bb90612bbc565b60028101546001600160a01b0316331461246c5760405162461bcd60e51b815260206004820152602760248201527f4f6e6c7920667265656c616e6365722063616e20636f6d706c657465206d696c6044820152666573746f6e657360c81b60648201526084016104bb565b6001600882015460ff16600481111561248757612487612776565b146124a45760405162461bcd60e51b81526004016104bb90612bec565b6000828152600a60205260409020805483146124d25760405162461bcd60e51b81526004016104bb90612c23565b838160010154146124f55760405162461bcd60e51b81526004016104bb90612c5a565b6001600582015460ff16600381111561251057612510612776565b1461255d5760405162461bcd60e51b815260206004820152601d60248201527f4d696c6573746f6e65206d75737420626520696e2070726f677265737300000060448201526064016104bb565b60058101805460ff1916600290811790915560405184917f01f70de68eefd8bb6ac103904ea62d23d60d22b41492b917b1f8cce56dc156de91610d1b9190612d47565b6000546001600160a01b031633146125ca5760405162461bcd60e51b81526004016104bb90612b44565b600580546001600160a01b0319166001600160a01b0392909216919091179055565b60018160000160008282546126019190612d8c565b909155505050565b6040518060c0016040528060008152602001600081526020016060815260200160008152602001600081526020016000600381111561264a5761264a612776565b905290565b6040518061014001604052806000815260200160006001600160a01b0316815260200160006001600160a01b031681526020016060815260200160608152602001600081526020016000815260200160008152602001600060048111156126b8576126b8612776565b8152602001606081525090565b6000602082840312156126d757600080fd5b81356001600160a01b03811681146126ee57600080fd5b9392505050565b6000806040838503121561270857600080fd5b50508035926020909101359150565b60006020828403121561272957600080fd5b5035919050565b6000815180845260005b818110156127565760208185018101518683018201520161273a565b506000602082860101526020601f19601f83011685010191505092915050565b634e487b7160e01b600052602160045260246000fd5b6004811061279c5761279c612776565b9052565b6020815281516020820152602082015160408201526000604083015160c060608401526127d060e0840182612730565b905060608401516080840152608084015160a084015260a08401516127f860c085018261278c565b509392505050565b6020808252825182820181905260009190848201906040850190845b818110156128385783518352928401929184019160010161281c565b50909695505050505050565b60008083601f84011261285657600080fd5b50813567ffffffffffffffff81111561286e57600080fd5b60208301915083602082850101111561288657600080fd5b9250929050565b6000806000806000608086880312156128a557600080fd5b85359450602086013567ffffffffffffffff8111156128c357600080fd5b6128cf88828901612844565b9699909850959660408101359660609091013595509350505050565b6000806000806000806080878903121561290457600080fd5b863567ffffffffffffffff8082111561291c57600080fd5b6129288a838b01612844565b9098509650602089013591508082111561294157600080fd5b5061294e89828a01612844565b979a9699509760408101359660609091013595509350505050565b60008060006040848603121561297e57600080fd5b83359250602084013567ffffffffffffffff81111561299c57600080fd5b6129a886828701612844565b9497909650939450505050565b60208152815160208201526020820151604082015260018060a01b0360408301511660608201526000606083015160e060808401526129f8610100840182612730565b9050608084015160a084015260a084015160c084015260c0840151151560e08401528091505092915050565b6005811061279c5761279c612776565b600081518084526020808501945080840160005b83811015612a6457815187529582019590820190600101612a48565b509495945050505050565b602081528151602082015260006020830151612a9660408401826001600160a01b03169052565b5060408301516001600160a01b0381166060840152506060830151610140806080850152612ac8610160850183612730565b91506080850151601f19808685030160a0870152612ae68483612730565b935060a087015160c087015260c087015160e087015260e08701519150610100828188015280880151925050610120612b2181880184612a24565b870151868503909101838701529050612b3a8382612a34565b9695505050505050565b60208082526021908201527f4f6e6c79206f776e65722063616e2063616c6c20746869732066756e6374696f6040820152603760f91b606082015260800190565b6020808252601f908201527f5265656e7472616e637947756172643a207265656e7472616e742063616c6c00604082015260600190565b602080825260169082015275141c9bda9958dd08191bd95cc81b9bdd08195e1a5cdd60521b604082015260600190565b6020808252601b908201527f50726f6a656374206d75737420626520696e2070726f67726573730000000000604082015260600190565b60208082526018908201527f4d696c6573746f6e6520646f6573206e6f742065786973740000000000000000604082015260600190565b60208082526021908201527f4d696c6573746f6e65206973206e6f7420666f7220746869732070726f6a65636040820152601d60fa1b606082015260800190565b600060208284031215612cad57600080fd5b5051919050565b634e487b7160e01b600052603260045260246000fd5b634e487b7160e01b600052601160045260246000fd5b600060018201612cf257612cf2612cca565b5060010190565b60208101612d078284612a24565b92915050565b600181811c90821680612d2157607f821691505b602082108103612d4157634e487b7160e01b600052602260045260246000fd5b50919050565b60208101612d07828461278c565b6020808252601b908201527f4465736372697074696f6e2063616e6e6f7420626520656d7074790000000000604082015260600190565b80820180821115612d0757612d07612cca565b634e487b7160e01b600052604160045260246000fd5b601f821115612dff57600081815260208120601f850160051c81016020861015612ddc5750805b601f850160051c820191505b81811015612dfb57828155600101612de8565b5050505b505050565b67ffffffffffffffff831115612e1c57612e1c612d9f565b612e3083612e2a8354612d0d565b83612db5565b6000601f841160018114612e645760008515612e4c5750838201355b600019600387901b1c1916600186901b178355612ebe565b600083815260209020601f19861690835b82811015612e955786850135825560209485019460019092019101612e75565b5086821015612eb25760001960f88860031b161c19848701351681555b505060018560011b0183555b5050505050565b81835281816020850137506000828201602090810191909152601f909101601f19169091010190565b604081526000612f02604083018587612ec5565b9050826020830152949350505050565b85815284602082015260018060a01b0384166040820152608060608201526000612f40608083018486612ec5565b979650505050505050565b60208082526022908201527f50726f6a656374206d757374206265206f70656e20666f722070726f706f73616040820152616c7360f01b60608201526080019056fea2646970667358221220fc1e1430f960ce4b0fbaac8ba68e85cb506e6f9d1c601f8fef7f3047f320fb8864736f6c63430008140033",
  "linkReferences": {},
  "deployedLinkReferences": {}
}