{
  "_format": "hh-sol-artifact-1",
  "contractName": "Escrow",
  "sourceName": "contracts/core/Escrow.sol",
  "abi": [
    {
      "inputs": [
        {
          "internalType": "address",
          "name": "initialOwner",
          "type": "address"
        },
        {
          "internalType": "address",
          "name": "marketplaceAddress",
          "type": "address"
        },
        {
          "internalType": "address",
          "name": "treasuryAddress",
          "type": "address"
        },
        {
          "internalType": "uint256",
          "name": "protocolFeeRate",
          "type": "uint256"
        }
      ],
      "stateMutability": "nonpayable",
      "type": "constructor"
    },
    {
      "anonymous": false,
      "inputs": [
        {
          "indexed": true,
          "internalType": "uint256",
          "name": "escrowId",
          "type": "uint256"
        },
        {
          "indexed": true,
          "internalType": "uint256",
          "name": "projectId",
          "type": "uint256"
        },
        {
          "indexed": true,
          "internalType": "uint256",
          "name": "milestoneId",
          "type": "uint256"
        },
        {
          "indexed": false,
          "internalType": "address",
          "name": "client",
          "type": "address"
        },
        {
          "indexed": false,
          "internalType": "address",
          "name": "freelancer",
          "type": "address"
        },
        {
          "indexed": false,
          "internalType": "uint256",
          "name": "amount",
          "type": "uint256"
        }
      ],
      "name": "EscrowCreated",
      "type": "event"
    },
    {
      "anonymous": false,
      "inputs": [
        {
          "indexed": true,
          "internalType": "uint256",
          "name": "escrowId",
          "type": "uint256"
        },
        {
          "indexed": true,
          "internalType": "uint256",
          "name": "projectId",
          "type": "uint256"
        },
        {
          "indexed": true,
          "internalType": "uint256",
          "name": "milestoneId",
          "type": "uint256"
        },
        {
          "indexed": false,
          "internalType": "address",
          "name": "initiator",
          "type": "address"
        }
      ],
      "name": "EscrowDisputed",
      "type": "event"
    },
    {
      "anonymous": false,
      "inputs": [
        {
          "indexed": true,
          "internalType": "uint256",
          "name": "escrowId",
          "type": "uint256"
        },
        {
          "indexed": true,
          "internalType": "uint256",
          "name": "projectId",
          "type": "uint256"
        },
        {
          "indexed": true,
          "internalType": "uint256",
          "name": "milestoneId",
          "type": "uint256"
        },
        {
          "indexed": false,
          "internalType": "address",
          "name": "client",
          "type": "address"
        },
        {
          "indexed": false,
          "internalType": "uint256",
          "name": "amount",
          "type": "uint256"
        }
      ],
      "name": "EscrowRefunded",
      "type": "event"
    },
    {
      "anonymous": false,
      "inputs": [
        {
          "indexed": true,
          "internalType": "uint256",
          "name": "escrowId",
          "type": "uint256"
        },
        {
          "indexed": true,
          "internalType": "uint256",
          "name": "projectId",
          "type": "uint256"
        },
        {
          "indexed": true,
          "internalType": "uint256",
          "name": "milestoneId",
          "type": "uint256"
        },
        {
          "indexed": false,
          "internalType": "address",
          "name": "freelancer",
          "type": "address"
        },
        {
          "indexed": false,
          "internalType": "uint256",
          "name": "amount",
          "type": "uint256"
        }
      ],
      "name": "EscrowReleased",
      "type": "event"
    },
    {
      "anonymous": false,
      "inputs": [
        {
          "indexed": true,
          "internalType": "address",
          "name": "previousOwner",
          "type": "address"
        },
        {
          "indexed": true,
          "internalType": "address",
          "name": "newOwner",
          "type": "address"
        }
      ],
      "name": "OwnershipTransferred",
      "type": "event"
    },
    {
      "inputs": [
        {
          "internalType": "uint256",
          "name": "projectId",
          "type": "uint256"
        },
        {
          "internalType": "uint256",
          "name": "milestoneId",
          "type": "uint256"
        },
        {
          "internalType": "address",
          "name": "client",
          "type": "address"
        },
        {
          "internalType": "address",
          "name": "freelancer",
          "type": "address"
        }
      ],
      "name": "createEscrow",
      "outputs": [
        {
          "internalType": "uint256",
          "name": "",
          "type": "uint256"
        }
      ],
      "stateMutability": "payable",
      "type": "function"
    },
    {
      "inputs": [
        {
          "internalType": "uint256",
          "name": "escrowId",
          "type": "uint256"
        }
      ],
      "name": "disputeEscrow",
      "outputs": [],
      "stateMutability": "nonpayable",
      "type": "function"
    },
    {
      "inputs": [
        {
          "internalType": "uint256",
          "name": "escrowId",
          "type": "uint256"
        }
      ],
      "name": "getEscrow",
      "outputs": [
        {
          "components": [
            {
              "internalType": "uint256",
              "name": "id",
              "type": "uint256"
            },
            {
              "internalType": "uint256",
              "name": "projectId",
              "type": "uint256"
            },
            {
              "internalType": "uint256",
              "name": "milestoneId",
              "type": "uint256"
            },
            {
              "internalType": "address",
              "name": "client",
              "type": "address"
            },
            {
              "internalType": "address",
              "name": "freelancer",
              "type": "address"
            },
            {
              "internalType": "uint256",
              "name": "amount",
              "type": "uint256"
            },
            {
              "internalType": "enum IEscrow.EscrowStatus",
              "name": "status",
              "type": "uint8"
            },
            {
              "internalType": "uint256",
              "name": "createdAt",
              "type": "uint256"
            }
          ],
          "internalType": "struct IEscrow.EscrowPayment",
          "name": "",
          "type": "tuple"
        }
      ],
      "stateMutability": "view",
      "type": "function"
    },
    {
      "inputs": [],
      "name": "getMarketplace",
      "outputs": [
        {
          "internalType": "address",
          "name": "",
          "type": "address"
        }
      ],
      "stateMutability": "view",
      "type": "function"
    },
    {
      "inputs": [
        {
          "internalType": "uint256",
          "name": "projectId",
          "type": "uint256"
        },
        {
          "internalType": "uint256",
          "name": "milestoneId",
          "type": "uint256"
        }
      ],
      "name": "getMilestoneEscrow",
      "outputs": [
        {
          "internalType": "uint256",
          "name": "",
          "type": "uint256"
        }
      ],
      "stateMutability": "view",
      "type": "function"
    },
    {
      "inputs": [
        {
          "internalType": "uint256",
          "name": "projectId",
          "type": "uint256"
        }
      ],
      "name": "getProjectEscrowBalance",
      "outputs": [
        {
          "internalType": "uint256",
          "name": "",
          "type": "uint256"
        }
      ],
      "stateMutability": "view",
      "type": "function"
    },
    {
      "inputs": [
        {
          "internalType": "uint256",
          "name": "projectId",
          "type": "uint256"
        }
      ],
      "name": "getProjectEscrows",
      "outputs": [
        {
          "internalType": "uint256[]",
          "name": "",
          "type": "uint256[]"
        }
      ],
      "stateMutability": "view",
      "type": "function"
    },
    {
      "inputs": [],
      "name": "getProtocolFeeRate",
      "outputs": [
        {
          "internalType": "uint256",
          "name": "",
          "type": "uint256"
        }
      ],
      "stateMutability": "view",
      "type": "function"
    },
    {
      "inputs": [],
      "name": "getTreasury",
      "outputs": [
        {
          "internalType": "address",
          "name": "",
          "type": "address"
        }
      ],
      "stateMutability": "view",
      "type": "function"
    },
    {
      "inputs": [],
      "name": "owner",
      "outputs": [
        {
          "internalType": "address",
          "name": "",
          "type": "address"
        }
      ],
      "stateMutability": "view",
      "type": "function"
    },
    {
      "inputs": [
        {
          "internalType": "uint256",
          "name": "escrowId",
          "type": "uint256"
        }
      ],
      "name": "refundEscrow",
      "outputs": [],
      "stateMutability": "nonpayable",
      "type": "function"
    },
    {
      "inputs": [
        {
          "internalType": "uint256",
          "name": "escrowId",
          "type": "uint256"
        }
      ],
      "name": "releaseEscrow",
      "outputs": [],
      "stateMutability": "nonpayable",
      "type": "function"
    },
    {
      "inputs": [
        {
          "internalType": "uint256",
          "name": "escrowId",
          "type": "uint256"
        },
        {
          "internalType": "address payable",
          "name": "recipient",
          "type": "address"
        },
        {
          "internalType": "uint256",
          "name": "amount",
          "type": "uint256"
        }
      ],
      "name": "resolveDispute",
      "outputs": [],
      "stateMutability": "nonpayable",
      "type": "function"
    },
    {
      "inputs": [
        {
          "internalType": "address",
          "name": "marketplaceAddress",
          "type": "address"
        }
      ],
      "name": "setMarketplace",
      "outputs": [],
      "stateMutability": "nonpayable",
      "type": "function"
    },
    {
      "inputs": [
        {
          "internalType": "uint256",
          "name": "protocolFeeRate",
          "type": "uint256"
        }
      ],
      "name": "setProtocolFeeRate",
      "outputs": [],
      "stateMutability": "nonpayable",
      "type": "function"
    },
    {
      "inputs": [
        {
          "internalType": "address",
          "name": "treasuryAddress",
          "type": "address"
        }
      ],
      "name": "setTreasury",
      "outputs": [],
      "stateMutability": "nonpayable",
      "type": "function"
    },
    {
      "inputs": [
        {
          "internalType": "address",
          "name": "newOwner",
          "type": "address"
        }
      ],
      "name": "transferOwnership",
      "outputs": [],
      "stateMutability": "nonpayable",
      "type": "function"
    }
  ],
  "bytecode": "0x60806040523480156200001157600080fd5b5060405162001ff138038062001ff18339810160408190526200003491620001fb565b6001600160a01b038416620000905760405162461bcd60e51b815260206004820152601560248201527f496e76616c6964206f776e65722061646472657373000000000000000000000060448201526064015b60405180910390fd5b6001600160a01b038316620000e85760405162461bcd60e51b815260206004820152601b60248201527f496e76616c6964206d61726b6574706c61636520616464726573730000000000604482015260640162000087565b6001600160a01b038216620001405760405162461bcd60e51b815260206004820152601860248201527f496e76616c696420747265617375727920616464726573730000000000000000604482015260640162000087565b6103e8811115620001945760405162461bcd60e51b815260206004820152601560248201527f4665652063616e6e6f7420657863656564203130250000000000000000000000604482015260640162000087565b600080546001600160a01b03199081166001600160a01b0396871617909155600580548216948616949094179093556004805490931691909316179055600355600180556200024d565b80516001600160a01b0381168114620001f657600080fd5b919050565b600080600080608085870312156200021257600080fd5b6200021d85620001de565b93506200022d60208601620001de565b92506200023d60408601620001de565b6060959095015193969295505050565b611d94806200025d6000396000f3fe6080604052600436106100fe5760003560e01c80639c17e43911610095578063ed65316411610064578063ed653164146102a6578063eec1ca72146102c6578063f0f44260146102f3578063f2fde38b14610313578063f7fab94f1461033357600080fd5b80639c17e43914610226578063b13aa2d614610246578063b563153c14610266578063ec96bc261461028657600080fd5b8063792166b8116100d1578063792166b81461019a5780637d19e596146101bb5780638da5cb5b146101e85780639855c1651461020657600080fd5b80630d21bcd514610103578063356f9dfd1461013a5780633b19e84a1461015c57806373ad6c2d1461017a575b600080fd5b34801561010f57600080fd5b506005546001600160a01b03165b6040516001600160a01b0390911681526020015b60405180910390f35b34801561014657600080fd5b5061015a610155366004611757565b610348565b005b34801561016857600080fd5b506004546001600160a01b031661011d565b34801561018657600080fd5b5061015a610195366004611788565b61059e565b6101ad6101a83660046117ac565b610640565b604051908152602001610131565b3480156101c757600080fd5b506101db6101d6366004611757565b6108de565b604051610131919061180c565b3480156101f457600080fd5b506000546001600160a01b031661011d565b34801561021257600080fd5b506101ad610221366004611757565b6109ba565b34801561023257600080fd5b5061015a610241366004611893565b610aaf565b34801561025257600080fd5b5061015a610261366004611757565b610f3d565b34801561027257600080fd5b5061015a610281366004611757565b610fb6565b34801561029257600080fd5b506101ad6102a13660046118cb565b61113d565b3480156102b257600080fd5b5061015a6102c1366004611757565b61115e565b3480156102d257600080fd5b506102e66102e1366004611757565b6114fe565b60405161013191906118ed565b3480156102ff57600080fd5b5061015a61030e366004611788565b611560565b34801561031f57600080fd5b5061015a61032e366004611788565b611602565b34801561033f57600080fd5b506003546101ad565b6002600154036103735760405162461bcd60e51b815260040161036a90611931565b60405180910390fd5b60026001556000818152600660205260409020805482146103a65760405162461bcd60e51b815260040161036a90611968565b6000600682015460ff1660038111156103c1576103c16117f6565b146103de5760405162461bcd60e51b815260040161036a90611997565b60048101546001600160a01b031633148061040357506005546001600160a01b031633145b8061041857506000546001600160a01b031633145b6104835760405162461bcd60e51b815260206004820152603660248201527f4f6e6c7920667265656c616e6365722c206d61726b6574706c6163652c206f7260448201527508185c989a5d1c985d1bdc8818d85b881c99599d5b9960521b606482015260840161036a565b60068101805460ff19166002179055600381015460058201546040516000926001600160a01b031691908381818185875af1925050503d80600081146104e5576040519150601f19603f3d011682016040523d82523d6000602084013e6104ea565b606091505b505090508061053b5760405162461bcd60e51b815260206004820152601960248201527f5472616e7366657220746f20636c69656e74206661696c656400000000000000604482015260640161036a565b6002820154600183015460038401546005850154604080516001600160a01b039093168352602083019190915286917fc2d56a206440141c933f9f2f3c1f88c7e2608129f97f198d80cfa9ef3008ee3a910160405180910390a450506001805550565b6000546001600160a01b031633146105c85760405162461bcd60e51b815260040161036a906119ce565b6001600160a01b03811661061e5760405162461bcd60e51b815260206004820152601b60248201527f496e76616c6964206d61726b6574706c61636520616464726573730000000000604482015260640161036a565b600580546001600160a01b0319166001600160a01b0392909216919091179055565b60006002600154036106645760405162461bcd60e51b815260040161036a90611931565b6002600155346106b65760405162461bcd60e51b815260206004820152601d60248201527f416d6f756e74206d7573742062652067726561746572207468616e2030000000604482015260640161036a565b6001600160a01b0383166107055760405162461bcd60e51b8152602060048201526016602482015275496e76616c696420636c69656e74206164647265737360501b604482015260640161036a565b6001600160a01b03821661075b5760405162461bcd60e51b815260206004820152601a60248201527f496e76616c696420667265656c616e6365722061646472657373000000000000604482015260640161036a565b816001600160a01b0316836001600160a01b0316036107cd5760405162461bcd60e51b815260206004820152602860248201527f436c69656e7420616e6420667265656c616e6365722063616e6e6f74206265206044820152677468652073616d6560c01b606482015260840161036a565b6107d760026116d2565b60006107e260025490565b600081815260066020818152604080842085815560018082018d9055600282018c90556003820180546001600160a01b03199081166001600160a01b038e8116918217909355600485018054909216928d169283179091553460058501819055968401805460ff19169055426007808601919091558f895286528488208054938401815588528588209092018890558d8752600885528387208d8852855295839020879055825190815292830194909452810191909152919250908690889084907f3b9fda06b6178ec38d5e3341f11265a568b4bf36724a988ea370fc889cb36e089060600160405180910390a4506001805595945050505050565b6108e66116ef565b60008281526006602052604090205482146109135760405162461bcd60e51b815260040161036a90611968565b600082815260066020818152604092839020835161010081018552815481526001820154928101929092526002810154938201939093526003808401546001600160a01b0390811660608401526004850154166080830152600584015460a08301529183015490929160c084019160ff1690811115610994576109946117f6565b60038111156109a5576109a56117f6565b81526020016007820154815250509050919050565b600081815260076020908152604080832080548251818502810185019093528083528493830182828015610a0d57602002820191906000526020600020905b8154815260200190600101908083116109f9575b505050505090506000805b8251811015610aa757600060066000858481518110610a3957610a39611a0f565b60200260200101518152602001908152602001600020905060006003811115610a6457610a646117f6565b600682015460ff166003811115610a7d57610a7d6117f6565b03610a94576005810154610a919084611a3b565b92505b5080610a9f81611a4e565b915050610a18565b509392505050565b6000546001600160a01b03163314610b185760405162461bcd60e51b815260206004820152602660248201527f4f6e6c792061726269747261746f722063616e2063616c6c20746869732066756044820152653731ba34b7b760d11b606482015260840161036a565b600260015403610b3a5760405162461bcd60e51b815260040161036a90611931565b6002600155600083815260066020526040902080548414610b6d5760405162461bcd60e51b815260040161036a90611968565b6003600682015460ff166003811115610b8857610b886117f6565b14610bd55760405162461bcd60e51b815260206004820152601f60248201527f457363726f77206973206e6f7420696e20646973707574656420737461746500604482015260640161036a565b8060050154821115610c295760405162461bcd60e51b815260206004820152601c60248201527f416d6f756e74206578636565647320657363726f7720616d6f756e7400000000604482015260640161036a565b60038101546001600160a01b0384811691161480610c56575060048101546001600160a01b038481169116145b610cb15760405162461bcd60e51b815260206004820152602660248201527f526563697069656e74206d75737420626520636c69656e74206f7220667265656044820152653630b731b2b960d11b606482015260840161036a565b6000828260050154610cc39190611a67565b60038301549091506000906001600160a01b0390811690861603610cf5575060048201546001600160a01b0316610d05565b5060038201546001600160a01b03165b60068301805460ff191660011790558315610dbf576000856001600160a01b03168560405160006040518083038185875af1925050503d8060008114610d67576040519150601f19603f3d011682016040523d82523d6000602084013e610d6c565b606091505b5050905080610dbd5760405162461bcd60e51b815260206004820152601c60248201527f5472616e7366657220746f20726563697069656e74206661696c656400000000604482015260640161036a565b505b8115610e6a576000816001600160a01b03168360405160006040518083038185875af1925050503d8060008114610e12576040519150601f19603f3d011682016040523d82523d6000602084013e610e17565b606091505b5050905080610e685760405162461bcd60e51b815260206004820152601e60248201527f5472616e7366657220746f206f74686572207061727479206661696c65640000604482015260640161036a565b505b60048301546001600160a01b0390811690861603610edb57600283015460018401546004850154604080516001600160a01b0390921682526020820188905289917fc53deaa71b4176bf94c72f9798b13f5e4bed06fe362ffab5f2f71c8e86703602910160405180910390a4610f31565b600283015460018401546003850154604080516001600160a01b0390921682526020820188905289917fc2d56a206440141c933f9f2f3c1f88c7e2608129f97f198d80cfa9ef3008ee3a91015b60405180910390a45b50506001805550505050565b6000546001600160a01b03163314610f675760405162461bcd60e51b815260040161036a906119ce565b6103e8811115610fb15760405162461bcd60e51b81526020600482015260156024820152744665652063616e6e6f74206578636565642031302560581b604482015260640161036a565b600355565b600260015403610fd85760405162461bcd60e51b815260040161036a90611931565b600260015560008181526006602052604090208054821461100b5760405162461bcd60e51b815260040161036a90611968565b6000600682015460ff166003811115611026576110266117f6565b146110435760405162461bcd60e51b815260040161036a90611997565b60038101546001600160a01b031633148061106a575060048101546001600160a01b031633145b8061107f57506005546001600160a01b031633145b6110e75760405162461bcd60e51b815260206004820152603360248201527f4f6e6c7920636c69656e742c20667265656c616e6365722c206f72206d61726b6044820152726574706c6163652063616e206469737075746560681b606482015260840161036a565b60068101805460ff191660031790556002810154600182015460405133815284907f7490246c3b38e5619200cb31c973573b7358a4b5e5cf748e05a72925d6ad980c9060200160405180910390a4505060018055565b60008281526008602090815260408083208484529091529020545b92915050565b6002600154036111805760405162461bcd60e51b815260040161036a90611931565b60026001556000818152600660205260409020805482146111b35760405162461bcd60e51b815260040161036a90611968565b6000600682015460ff1660038111156111ce576111ce6117f6565b146111eb5760405162461bcd60e51b815260040161036a90611997565b6005546001820154604051631e1e7e5960e31b815260048101919091526000916001600160a01b03169063f0f3f2c890602401600060405180830381865afa15801561123b573d6000803e3d6000fd5b505050506040513d6000823e601f3d908101601f191682016040526112639190810190611c0f565b60038301549091506001600160a01b031633148061128b57506005546001600160a01b031633145b806112a057506000546001600160a01b031633145b6113125760405162461bcd60e51b815260206004820152603960248201527f4f6e6c7920636c69656e742c206d61726b6574706c6163652c206f722061726260448201527f69747261746f722063616e2072656c656173652066756e647300000000000000606482015260840161036a565b60068201805460ff1916600117905560035460058301546000916127109161133a9190611d25565b6113449190611d3c565b905060008184600501546113589190611a67565b60048501546040519192506000916001600160a01b039091169083908381818185875af1925050503d80600081146113ac576040519150601f19603f3d011682016040523d82523d6000602084013e6113b1565b606091505b50509050806114025760405162461bcd60e51b815260206004820152601d60248201527f5472616e7366657220746f20667265656c616e636572206661696c6564000000604482015260640161036a565b82156114ad576004546040516000916001600160a01b03169085908381818185875af1925050503d8060008114611455576040519150601f19603f3d011682016040523d82523d6000602084013e61145a565b606091505b50509050806114ab5760405162461bcd60e51b815260206004820152601b60248201527f5472616e7366657220746f207472656173757279206661696c65640000000000604482015260640161036a565b505b600285015460018601546004870154604080516001600160a01b0390921682526020820186905289917fc53deaa71b4176bf94c72f9798b13f5e4bed06fe362ffab5f2f71c8e867036029101610f28565b60008181526007602090815260409182902080548351818402810184019094528084526060939283018282801561155457602002820191906000526020600020905b815481526020019060010190808311611540575b50505050509050919050565b6000546001600160a01b0316331461158a5760405162461bcd60e51b815260040161036a906119ce565b6001600160a01b0381166115e05760405162461bcd60e51b815260206004820152601860248201527f496e76616c696420747265617375727920616464726573730000000000000000604482015260640161036a565b600480546001600160a01b0319166001600160a01b0392909216919091179055565b6000546001600160a01b0316331461162c5760405162461bcd60e51b815260040161036a906119ce565b6001600160a01b0381166116825760405162461bcd60e51b815260206004820152601d60248201527f4e6577206f776e657220697320746865207a65726f2061646472657373000000604482015260640161036a565b600080546001600160a01b038381166001600160a01b0319831681178455604051919092169283917f8be0079c531659141344cd1fd0a4f28419497f9722a3daafe3b4186f6b6457e09190a35050565b60018160000160008282546116e79190611a3b565b909155505050565b60405180610100016040528060008152602001600081526020016000815260200160006001600160a01b0316815260200160006001600160a01b03168152602001600081526020016000600381111561174a5761174a6117f6565b8152602001600081525090565b60006020828403121561176957600080fd5b5035919050565b6001600160a01b038116811461178557600080fd5b50565b60006020828403121561179a57600080fd5b81356117a581611770565b9392505050565b600080600080608085870312156117c257600080fd5b843593506020850135925060408501356117db81611770565b915060608501356117eb81611770565b939692955090935050565b634e487b7160e01b600052602160045260246000fd5b600061010082019050825182526020830151602083015260408301516040830152606083015160018060a01b038082166060850152806080860151166080850152505060a083015160a083015260c08301516004811061187c57634e487b7160e01b600052602160045260246000fd5b8060c08401525060e083015160e083015292915050565b6000806000606084860312156118a857600080fd5b8335925060208401356118ba81611770565b929592945050506040919091013590565b600080604083850312156118de57600080fd5b50508035926020909101359150565b6020808252825182820181905260009190848201906040850190845b8181101561192557835183529284019291840191600101611909565b50909695505050505050565b6020808252601f908201527f5265656e7472616e637947756172643a207265656e7472616e742063616c6c00604082015260600190565b602080825260159082015274115cd8dc9bddc8191bd95cc81b9bdd08195e1a5cdd605a1b604082015260600190565b6020808252601d908201527f457363726f77206973206e6f7420696e2066756e646564207374617465000000604082015260600190565b60208082526021908201527f4f6e6c79206f776e65722063616e2063616c6c20746869732066756e6374696f6040820152603760f91b606082015260800190565b634e487b7160e01b600052603260045260246000fd5b634e487b7160e01b600052601160045260246000fd5b8082018082111561115857611158611a25565b600060018201611a6057611a60611a25565b5060010190565b8181038181111561115857611158611a25565b634e487b7160e01b600052604160045260246000fd5b604051610140810167ffffffffffffffff81118282101715611ab457611ab4611a7a565b60405290565b604051601f8201601f1916810167ffffffffffffffff81118282101715611ae357611ae3611a7a565b604052919050565b8051611af681611770565b919050565b600082601f830112611b0c57600080fd5b815167ffffffffffffffff811115611b2657611b26611a7a565b6020611b3a601f8301601f19168201611aba565b8281528582848701011115611b4e57600080fd5b60005b83811015611b6c578581018301518282018401528201611b51565b506000928101909101919091529392505050565b805160058110611af657600080fd5b600082601f830112611ba057600080fd5b8151602067ffffffffffffffff821115611bbc57611bbc611a7a565b8160051b611bcb828201611aba565b9283528481018201928281019087851115611be557600080fd5b83870192505b84831015611c0457825182529183019190830190611beb565b979650505050505050565b600060208284031215611c2157600080fd5b815167ffffffffffffffff80821115611c3957600080fd5b908301906101408286031215611c4e57600080fd5b611c56611a90565b82518152611c6660208401611aeb565b6020820152611c7760408401611aeb565b6040820152606083015182811115611c8e57600080fd5b611c9a87828601611afb565b606083015250608083015182811115611cb257600080fd5b611cbe87828601611afb565b60808301525060a083015160a082015260c083015160c082015260e083015160e0820152610100611cf0818501611b80565b908201526101208381015183811115611d0857600080fd5b611d1488828701611b8f565b918301919091525095945050505050565b808202811582820484141761115857611158611a25565b600082611d5957634e487b7160e01b600052601260045260246000fd5b50049056fea26469706673582212209e1a2f7208e8a8dfa4cdf481f0d998c5111ea5cc5c1fc8abfaebe6a633b8352e64736f6c63430008140033",
  "linkReferences": {},
  "deployedLinkReferences": {}
}