{
  "_format": "hh-sol-artifact-1",
  "contractName": "ReputationSystem",
  "sourceName": "contracts/core/ReputationSystem.sol",
  "abi": [
    {
      "inputs": [
        {
          "internalType": "address",
          "name": "initialOwner",
          "type": "address"
        },
        {
          "internalType": "address",
          "name": "marketplaceAddress",
          "type": "address"
        }
      ],
      "stateMutability": "nonpayable",
      "type": "constructor"
    },
    {
      "anonymous": false,
      "inputs": [
        {
          "indexed": true,
          "internalType": "address",
          "name": "previousOwner",
          "type": "address"
        },
        {
          "indexed": true,
          "internalType": "address",
          "name": "newOwner",
          "type": "address"
        }
      ],
      "name": "OwnershipTransferred",
      "type": "event"
    },
    {
      "anonymous": false,
      "inputs": [
        {
          "indexed": true,
          "internalType": "uint256",
          "name": "reviewId",
          "type": "uint256"
        },
        {
          "indexed": true,
          "internalType": "uint256",
          "name": "projectId",
          "type": "uint256"
        },
        {
          "indexed": true,
          "internalType": "address",
          "name": "reviewer",
          "type": "address"
        },
        {
          "indexed": false,
          "internalType": "address",
          "name": "reviewee",
          "type": "address"
        },
        {
          "indexed": false,
          "internalType": "uint8",
          "name": "rating",
          "type": "uint8"
        }
      ],
      "name": "ReviewSubmitted",
      "type": "event"
    },
    {
      "inputs": [
        {
          "internalType": "address",
          "name": "reviewer",
          "type": "address"
        },
        {
          "internalType": "uint256",
          "name": "projectId",
          "type": "uint256"
        },
        {
          "internalType": "address",
          "name": "reviewee",
          "type": "address"
        }
      ],
      "name": "canReview",
      "outputs": [
        {
          "internalType": "bool",
          "name": "",
          "type": "bool"
        }
      ],
      "stateMutability": "view",
      "type": "function"
    },
    {
      "inputs": [
        {
          "internalType": "uint256",
          "name": "projectId",
          "type": "uint256"
        }
      ],
      "name": "getProjectReviews",
      "outputs": [
        {
          "internalType": "uint256[]",
          "name": "",
          "type": "uint256[]"
        }
      ],
      "stateMutability": "view",
      "type": "function"
    },
    {
      "inputs": [
        {
          "internalType": "address",
          "name": "user",
          "type": "address"
        }
      ],
      "name": "getReputation",
      "outputs": [
        {
          "components": [
            {
              "internalType": "uint256",
              "name": "totalRating",
              "type": "uint256"
            },
            {
              "internalType": "uint256",
              "name": "reviewCount",
              "type": "uint256"
            },
            {
              "internalType": "uint256[]",
              "name": "reviewIds",
              "type": "uint256[]"
            }
          ],
          "internalType": "struct IReputationSystem.Reputation",
          "name": "",
          "type": "tuple"
        }
      ],
      "stateMutability": "view",
      "type": "function"
    },
    {
      "inputs": [
        {
          "internalType": "uint256",
          "name": "reviewId",
          "type": "uint256"
        }
      ],
      "name": "getReview",
      "outputs": [
        {
          "components": [
            {
              "internalType": "uint256",
              "name": "id",
              "type": "uint256"
            },
            {
              "internalType": "uint256",
              "name": "projectId",
              "type": "uint256"
            },
            {
              "internalType": "address",
              "name": "reviewer",
              "type": "address"
            },
            {
              "internalType": "address",
              "name": "reviewee",
              "type": "address"
            },
            {
              "internalType": "uint8",
              "name": "rating",
              "type": "uint8"
            },
            {
              "internalType": "string",
              "name": "comment",
              "type": "string"
            },
            {
              "internalType": "uint256",
              "name": "timestamp",
              "type": "uint256"
            }
          ],
          "internalType": "struct IReputationSystem.Review",
          "name": "",
          "type": "tuple"
        }
      ],
      "stateMutability": "view",
      "type": "function"
    },
    {
      "inputs": [
        {
          "internalType": "address",
          "name": "user",
          "type": "address"
        }
      ],
      "name": "getUserRating",
      "outputs": [
        {
          "internalType": "uint256",
          "name": "rating",
          "type": "uint256"
        },
        {
          "internalType": "uint256",
          "name": "reviewCount",
          "type": "uint256"
        }
      ],
      "stateMutability": "view",
      "type": "function"
    },
    {
      "inputs": [
        {
          "internalType": "address",
          "name": "user",
          "type": "address"
        }
      ],
      "name": "getUserReviews",
      "outputs": [
        {
          "internalType": "uint256[]",
          "name": "",
          "type": "uint256[]"
        }
      ],
      "stateMutability": "view",
      "type": "function"
    },
    {
      "inputs": [],
      "name": "owner",
      "outputs": [
        {
          "internalType": "address",
          "name": "",
          "type": "address"
        }
      ],
      "stateMutability": "view",
      "type": "function"
    },
    {
      "inputs": [
        {
          "internalType": "uint256",
          "name": "projectId",
          "type": "uint256"
        },
        {
          "internalType": "address",
          "name": "reviewee",
          "type": "address"
        },
        {
          "internalType": "uint8",
          "name": "rating",
          "type": "uint8"
        },
        {
          "internalType": "string",
          "name": "comment",
          "type": "string"
        }
      ],
      "name": "submitReview",
      "outputs": [
        {
          "internalType": "uint256",
          "name": "",
          "type": "uint256"
        }
      ],
      "stateMutability": "nonpayable",
      "type": "function"
    },
    {
      "inputs": [
        {
          "internalType": "address",
          "name": "newOwner",
          "type": "address"
        }
      ],
      "name": "transferOwnership",
      "outputs": [],
      "stateMutability": "nonpayable",
      "type": "function"
    }
  ],
  "bytecode": "0x608060405234801561001057600080fd5b5060405161129438038061129483398101604081905261002f9161012d565b6001600160a01b03821661008a5760405162461bcd60e51b815260206004820152601560248201527f496e76616c6964206f776e65722061646472657373000000000000000000000060448201526064015b60405180910390fd5b6001600160a01b0381166100e05760405162461bcd60e51b815260206004820152601b60248201527f496e76616c6964206d61726b6574706c616365206164647265737300000000006044820152606401610081565b600080546001600160a01b039384166001600160a01b03199182161790915560028054929093169116179055610160565b80516001600160a01b038116811461012857600080fd5b919050565b6000806040838503121561014057600080fd5b61014983610111565b915061015760208401610111565b90509250929050565b6111258061016f6000396000f3fe608060405234801561001057600080fd5b50600436106100935760003560e01c80638da5cb5b116100665780638da5cb5b1461011d578063990581b6146101385780639c89a0e214610158578063f2fde38b14610178578063fe9366761461018d57600080fd5b806303a090e41461009857806318d0e8b2146100c15780633c6bdab3146100d4578063460168c3146100f5575b600080fd5b6100ab6100a6366004610a24565b6101b0565b6040516100b89190610a3d565b60405180910390f35b6100ab6100cf366004610a99565b610212565b6100e76100e2366004610ab6565b61027f565b6040519081526020016100b8565b610108610103366004610a99565b6104cf565b604080519283526020830191909152016100b8565b6000546040516001600160a01b0390911681526020016100b8565b61014b610146366004610a24565b610512565b6040516100b89190610b7f565b61016b610166366004610a99565b6106a4565b6040516100b89190610c0c565b61018b610186366004610a99565b610754565b005b6101a061019b366004610c72565b61085e565b60405190151581526020016100b8565b60008181526005602090815260409182902080548351818402810184019094528084526060939283018282801561020657602002820191906000526020600020905b8154815260200190600101908083116101f2575b50505050509050919050565b6001600160a01b03811660009081526004602090815260409182902060020180548351818402810184019094528084526060939283018282801561020657602002820191906000526020600020908154815260200190600101908083116101f25750505050509050919050565b600060018460ff1610158015610299575060058460ff1611155b6102ea5760405162461bcd60e51b815260206004820152601e60248201527f526174696e67206d757374206265206265747765656e203120616e642035000060448201526064015b60405180910390fd5b6102f533878761085e565b6103415760405162461bcd60e51b815260206004820152601860248201527f4e6f7420617574686f72697a656420746f20726576696577000000000000000060448201526064016102e1565b61034b6001610a07565b600061035660015490565b6000818152600360208190526040909120828155600181018a90556002810180546001600160a01b03191633179055908101805460ff8916600160a01b026001600160a81b03199091166001600160a01b038b1617179055909150600481016103c0858783610d53565b504260058201556001600160a01b03871660009081526004602052604081208054909160ff8916918391906103f6908490610e14565b909155505060018181018054600090610410908490610e14565b909155505060028101805460018082018355600092835260208084209092018690558b8352600682526040808420338086529084528185206001600160a01b038e16808752908552828620805460ff1916851790558e86526005855282862080549485018155865294849020909201879055805193845260ff8b1692840192909252918b9186917ff73c56511c680aa4ac8121a53336c59b7543513e6f99f1f20010e81beed78c55910160405180910390a45090979650505050505050565b6001600160a01b03811660009081526004602052604081206001810154908115610507578054610500908390610e3b565b925061050c565b600092505b50915091565b6040805160e08101825260008082526020820181905291810182905260608082018390526080820183905260a082015260c0810191909152600082815260036020526040902054821461059f5760405162461bcd60e51b815260206004820152601560248201527414995d9a595dc8191bd95cc81b9bdd08195e1a5cdd605a1b60448201526064016102e1565b600082815260036020818152604092839020835160e0810185528154815260018201549281019290925260028101546001600160a01b0390811694830194909452918201549283166060820152600160a01b90920460ff16608083015260048101805460a08401919061061190610cca565b80601f016020809104026020016040519081016040528092919081815260200182805461063d90610cca565b801561068a5780601f1061065f5761010080835404028352916020019161068a565b820191906000526020600020905b81548152906001019060200180831161066d57829003601f168201915b505050505081526020016005820154815250509050919050565b6106c860405180606001604052806000815260200160008152602001606081525090565b6001600160a01b0382166000908152600460209081526040918290208251606081018452815481526001820154818401526002820180548551818602810186018752818152929593949386019383018282801561074457602002820191906000526020600020905b815481526020019060010190808311610730575b5050505050815250509050919050565b6000546001600160a01b031633146107b85760405162461bcd60e51b815260206004820152602160248201527f4f6e6c79206f776e65722063616e2063616c6c20746869732066756e6374696f6044820152603760f91b60648201526084016102e1565b6001600160a01b03811661080e5760405162461bcd60e51b815260206004820152601d60248201527f4e6577206f776e657220697320746865207a65726f206164647265737300000060448201526064016102e1565b600080546001600160a01b038381166001600160a01b0319831681178455604051919092169283917f8be0079c531659141344cd1fd0a4f28419497f9722a3daafe3b4186f6b6457e09190a35050565b60008281526006602090815260408083206001600160a01b038088168552908352818420908516845290915281205460ff161561089d57506000610a00565b600254604051631e1e7e5960e31b8152600481018590526000916001600160a01b03169063f0f3f2c890602401600060405180830381865afa1580156108e7573d6000803e3d6000fd5b505050506040513d6000823e601f3d908101601f1916820160405261090f9190810190610fc3565b805190915084141580610939575060028161010001516004811115610936576109366110d9565b14155b15610948576000915050610a00565b80602001516001600160a01b0316856001600160a01b031614158015610984575080604001516001600160a01b0316856001600160a01b031614155b15610993576000915050610a00565b80602001516001600160a01b0316836001600160a01b0316141580156109cf575080604001516001600160a01b0316836001600160a01b031614155b806109eb5750846001600160a01b0316836001600160a01b0316145b156109fa576000915050610a00565b60019150505b9392505050565b6001816000016000828254610a1c9190610e14565b909155505050565b600060208284031215610a3657600080fd5b5035919050565b6020808252825182820181905260009190848201906040850190845b81811015610a7557835183529284019291840191600101610a59565b50909695505050505050565b6001600160a01b0381168114610a9657600080fd5b50565b600060208284031215610aab57600080fd5b8135610a0081610a81565b600080600080600060808688031215610ace57600080fd5b853594506020860135610ae081610a81565b9350604086013560ff81168114610af657600080fd5b9250606086013567ffffffffffffffff80821115610b1357600080fd5b818801915088601f830112610b2757600080fd5b813581811115610b3657600080fd5b896020828501011115610b4857600080fd5b9699959850939650602001949392505050565b60005b83811015610b76578181015183820152602001610b5e565b50506000910152565b6020815281516020820152602082015160408201526000604083015160018060a01b038082166060850152806060860151166080850152505060ff60808401511660a083015260a083015160e060c0840152805180610100850152610120610bed8282870160208601610b5b565b60c0959095015160e0850152601f01601f191690920190920192915050565b6000602080835260808301845182850152818501516040850152604085015160608086015281815180845260a0870191508483019350600092505b80831015610c675783518252928401926001929092019190840190610c47565b509695505050505050565b600080600060608486031215610c8757600080fd5b8335610c9281610a81565b9250602084013591506040840135610ca981610a81565b809150509250925092565b634e487b7160e01b600052604160045260246000fd5b600181811c90821680610cde57607f821691505b602082108103610cfe57634e487b7160e01b600052602260045260246000fd5b50919050565b601f821115610d4e57600081815260208120601f850160051c81016020861015610d2b5750805b601f850160051c820191505b81811015610d4a57828155600101610d37565b5050505b505050565b67ffffffffffffffff831115610d6b57610d6b610cb4565b610d7f83610d798354610cca565b83610d04565b6000601f841160018114610db35760008515610d9b5750838201355b600019600387901b1c1916600186901b178355610e0d565b600083815260209020601f19861690835b82811015610de45786850135825560209485019460019092019101610dc4565b5086821015610e015760001960f88860031b161c19848701351681555b505060018560011b0183555b5050505050565b80820180821115610e3557634e487b7160e01b600052601160045260246000fd5b92915050565b600082610e5857634e487b7160e01b600052601260045260246000fd5b500490565b604051610140810167ffffffffffffffff81118282101715610e8157610e81610cb4565b60405290565b604051601f8201601f1916810167ffffffffffffffff81118282101715610eb057610eb0610cb4565b604052919050565b8051610ec381610a81565b919050565b600082601f830112610ed957600080fd5b815167ffffffffffffffff811115610ef357610ef3610cb4565b610f06601f8201601f1916602001610e87565b818152846020838601011115610f1b57600080fd5b610f2c826020830160208701610b5b565b949350505050565b805160058110610ec357600080fd5b600082601f830112610f5457600080fd5b8151602067ffffffffffffffff821115610f7057610f70610cb4565b8160051b610f7f828201610e87565b9283528481018201928281019087851115610f9957600080fd5b83870192505b84831015610fb857825182529183019190830190610f9f565b979650505050505050565b600060208284031215610fd557600080fd5b815167ffffffffffffffff80821115610fed57600080fd5b90830190610140828603121561100257600080fd5b61100a610e5d565b8251815261101a60208401610eb8565b602082015261102b60408401610eb8565b604082015260608301518281111561104257600080fd5b61104e87828601610ec8565b60608301525060808301518281111561106657600080fd5b61107287828601610ec8565b60808301525060a083015160a082015260c083015160c082015260e083015160e08201526101006110a4818501610f34565b9082015261012083810151838111156110bc57600080fd5b6110c888828701610f43565b918301919091525095945050505050565b634e487b7160e01b600052602160045260246000fdfea2646970667358221220a1ee40d6d58f38f6b57005d591477e02c8be7815c71d5b2b9bdf0d28b720493d64736f6c63430008140033",
  "linkReferences": {},
  "deployedLinkReferences": {}
}