{
  "_format": "hh-sol-artifact-1",
  "contractName": "DisputeResolution",
  "sourceName": "contracts/core/DisputeResolution.sol",
  "abi": [
    {
      "inputs": [
        {
          "internalType": "address",
          "name": "initialOwner",
          "type": "address"
        },
        {
          "internalType": "address",
          "name": "marketplaceAddress",
          "type": "address"
        },
        {
          "internalType": "address",
          "name": "escrowAddress",
          "type": "address"
        }
      ],
      "stateMutability": "nonpayable",
      "type": "constructor"
    },
    {
      "anonymous": false,
      "inputs": [
        {
          "indexed": true,
          "internalType": "uint256",
          "name": "disputeId",
          "type": "uint256"
        },
        {
          "indexed": true,
          "internalType": "uint256",
          "name": "projectId",
          "type": "uint256"
        },
        {
          "indexed": true,
          "internalType": "uint256",
          "name": "milestoneId",
          "type": "uint256"
        },
        {
          "indexed": false,
          "internalType": "address",
          "name": "initiator",
          "type": "address"
        },
        {
          "indexed": false,
          "internalType": "address",
          "name": "respondent",
          "type": "address"
        }
      ],
      "name": "DisputeCreated",
      "type": "event"
    },
    {
      "anonymous": false,
      "inputs": [
        {
          "indexed": true,
          "internalType": "uint256",
          "name": "disputeId",
          "type": "uint256"
        },
        {
          "indexed": true,
          "internalType": "uint256",
          "name": "projectId",
          "type": "uint256"
        },
        {
          "indexed": false,
          "internalType": "enum IDisputeResolution.ResolutionType",
          "name": "resolution",
          "type": "uint8"
        }
      ],
      "name": "DisputeResolved",
      "type": "event"
    },
    {
      "anonymous": false,
      "inputs": [
        {
          "indexed": true,
          "internalType": "uint256",
          "name": "disputeId",
          "type": "uint256"
        },
        {
          "indexed": false,
          "internalType": "address",
          "name": "submitter",
          "type": "address"
        },
        {
          "indexed": false,
          "internalType": "string",
          "name": "evidence",
          "type": "string"
        }
      ],
      "name": "EvidenceSubmitted",
      "type": "event"
    },
    {
      "anonymous": false,
      "inputs": [
        {
          "indexed": true,
          "internalType": "address",
          "name": "previousOwner",
          "type": "address"
        },
        {
          "indexed": true,
          "internalType": "address",
          "name": "newOwner",
          "type": "address"
        }
      ],
      "name": "OwnershipTransferred",
      "type": "event"
    },
    {
      "anonymous": false,
      "inputs": [
        {
          "indexed": true,
          "internalType": "uint256",
          "name": "disputeId",
          "type": "uint256"
        },
        {
          "indexed": false,
          "internalType": "address",
          "name": "responder",
          "type": "address"
        },
        {
          "indexed": false,
          "internalType": "string",
          "name": "response",
          "type": "string"
        }
      ],
      "name": "ResponseSubmitted",
      "type": "event"
    },
    {
      "inputs": [
        {
          "internalType": "uint256",
          "name": "disputeId",
          "type": "uint256"
        }
      ],
      "name": "cancelDispute",
      "outputs": [],
      "stateMutability": "nonpayable",
      "type": "function"
    },
    {
      "inputs": [
        {
          "internalType": "uint256",
          "name": "projectId",
          "type": "uint256"
        },
        {
          "internalType": "uint256",
          "name": "milestoneId",
          "type": "uint256"
        },
        {
          "internalType": "address",
          "name": "respondent",
          "type": "address"
        },
        {
          "internalType": "string",
          "name": "reason",
          "type": "string"
        }
      ],
      "name": "createDispute",
      "outputs": [
        {
          "internalType": "uint256",
          "name": "",
          "type": "uint256"
        }
      ],
      "stateMutability": "nonpayable",
      "type": "function"
    },
    {
      "inputs": [
        {
          "internalType": "uint256",
          "name": "disputeId",
          "type": "uint256"
        }
      ],
      "name": "getDispute",
      "outputs": [
        {
          "components": [
            {
              "internalType": "uint256",
              "name": "id",
              "type": "uint256"
            },
            {
              "internalType": "uint256",
              "name": "projectId",
              "type": "uint256"
            },
            {
              "internalType": "uint256",
              "name": "milestoneId",
              "type": "uint256"
            },
            {
              "internalType": "address",
              "name": "initiator",
              "type": "address"
            },
            {
              "internalType": "address",
              "name": "respondent",
              "type": "address"
            },
            {
              "internalType": "string",
              "name": "reason",
              "type": "string"
            },
            {
              "internalType": "string",
              "name": "evidence",
              "type": "string"
            },
            {
              "internalType": "string",
              "name": "response",
              "type": "string"
            },
            {
              "internalType": "enum IDisputeResolution.DisputeStatus",
              "name": "status",
              "type": "uint8"
            },
            {
              "internalType": "enum IDisputeResolution.ResolutionType",
              "name": "resolution",
              "type": "uint8"
            },
            {
              "internalType": "uint256",
              "name": "createdAt",
              "type": "uint256"
            },
            {
              "internalType": "uint256",
              "name": "resolvedAt",
              "type": "uint256"
            }
          ],
          "internalType": "struct IDisputeResolution.Dispute",
          "name": "",
          "type": "tuple"
        }
      ],
      "stateMutability": "view",
      "type": "function"
    },
    {
      "inputs": [
        {
          "internalType": "uint256",
          "name": "projectId",
          "type": "uint256"
        }
      ],
      "name": "getProjectDisputes",
      "outputs": [
        {
          "internalType": "uint256[]",
          "name": "",
          "type": "uint256[]"
        }
      ],
      "stateMutability": "view",
      "type": "function"
    },
    {
      "inputs": [
        {
          "internalType": "address",
          "name": "user",
          "type": "address"
        }
      ],
      "name": "getUserDisputes",
      "outputs": [
        {
          "internalType": "uint256[]",
          "name": "",
          "type": "uint256[]"
        }
      ],
      "stateMutability": "view",
      "type": "function"
    },
    {
      "inputs": [
        {
          "internalType": "address",
          "name": "user",
          "type": "address"
        }
      ],
      "name": "getUserInitiatedDisputes",
      "outputs": [
        {
          "internalType": "uint256[]",
          "name": "",
          "type": "uint256[]"
        }
      ],
      "stateMutability": "view",
      "type": "function"
    },
    {
      "inputs": [
        {
          "internalType": "uint256",
          "name": "projectId",
          "type": "uint256"
        },
        {
          "internalType": "uint256",
          "name": "milestoneId",
          "type": "uint256"
        }
      ],
      "name": "hasDispute",
      "outputs": [
        {
          "internalType": "bool",
          "name": "",
          "type": "bool"
        }
      ],
      "stateMutability": "view",
      "type": "function"
    },
    {
      "inputs": [],
      "name": "owner",
      "outputs": [
        {
          "internalType": "address",
          "name": "",
          "type": "address"
        }
      ],
      "stateMutability": "view",
      "type": "function"
    },
    {
      "inputs": [
        {
          "internalType": "uint256",
          "name": "disputeId",
          "type": "uint256"
        },
        {
          "internalType": "enum IDisputeResolution.ResolutionType",
          "name": "resolution",
          "type": "uint8"
        }
      ],
      "name": "resolveDispute",
      "outputs": [],
      "stateMutability": "nonpayable",
      "type": "function"
    },
    {
      "inputs": [
        {
          "internalType": "uint256",
          "name": "disputeId",
          "type": "uint256"
        },
        {
          "internalType": "string",
          "name": "evidence",
          "type": "string"
        }
      ],
      "name": "submitEvidence",
      "outputs": [],
      "stateMutability": "nonpayable",
      "type": "function"
    },
    {
      "inputs": [
        {
          "internalType": "uint256",
          "name": "disputeId",
          "type": "uint256"
        },
        {
          "internalType": "string",
          "name": "response",
          "type": "string"
        }
      ],
      "name": "submitResponse",
      "outputs": [],
      "stateMutability": "nonpayable",
      "type": "function"
    },
    {
      "inputs": [
        {
          "internalType": "address",
          "name": "newOwner",
          "type": "address"
        }
      ],
      "name": "transferOwnership",
      "outputs": [],
      "stateMutability": "nonpayable",
      "type": "function"
    }
  ],
  "bytecode": "0x60806040523480156200001157600080fd5b506040516200212f3803806200212f8339810160408190526200003491620001a0565b6001600160a01b038316620000905760405162461bcd60e51b815260206004820152601560248201527f496e76616c6964206f776e65722061646472657373000000000000000000000060448201526064015b60405180910390fd5b6001600160a01b038216620000e85760405162461bcd60e51b815260206004820152601b60248201527f496e76616c6964206d61726b6574706c61636520616464726573730000000000604482015260640162000087565b6001600160a01b038116620001405760405162461bcd60e51b815260206004820152601660248201527f496e76616c696420657363726f77206164647265737300000000000000000000604482015260640162000087565b600080546001600160a01b039485166001600160a01b031991821617909155600280549385169382169390931790925560038054919093169116179055620001ea565b80516001600160a01b03811681146200019b57600080fd5b919050565b600080600060608486031215620001b657600080fd5b620001c18462000183565b9250620001d16020850162000183565b9150620001e16040850162000183565b90509250925092565b611f3580620001fa6000396000f3fe608060405234801561001057600080fd5b50600436106100b45760003560e01c8063bfb0a55b11610071578063bfb0a55b14610159578063df02935c1461016c578063e3279ef81461017f578063e3a96cbd146101a2578063e55e4211146101c2578063f2fde38b146101d557600080fd5b806365ffb8ae146100b95780638da5cb5b146100e25780638fae7acb146100fd57806391520a3a14610110578063a6a7f0eb14610131578063a7dbf93614610146575b600080fd5b6100cc6100c73660046115d2565b6101e8565b6040516100d991906115eb565b60405180910390f35b6000546040516001600160a01b0390911681526020016100d9565b6100cc61010b366004611647565b61024a565b61012361011e3660046116b4565b6102b4565b6040519081526020016100d9565b61014461013f36600461171e565b61076d565b005b61014461015436600461171e565b61097e565b6100cc610167366004611647565b610b60565b61014461017a3660046115d2565b610bca565b61019261018d36600461176a565b610d68565b60405190151581526020016100d9565b6101b56101b03660046115d2565b610d8b565b6040516100d9919061181d565b6101446101d036600461191e565b61105c565b6101446101e3366004611647565b611461565b60008181526005602090815260409182902080548351818402810184019094528084526060939283018282801561023e57602002820191906000526020600020905b81548152602001906001019080831161022a575b50505050509050919050565b6001600160a01b03811660009081526006602090815260409182902080548351818402810184019094528084526060939283018282801561023e576020028201919060005260206000209081548152602001906001019080831161022a5750505050509050919050565b60006001600160a01b0384166103115760405162461bcd60e51b815260206004820152601a60248201527f496e76616c696420726573706f6e64656e74206164647265737300000000000060448201526064015b60405180910390fd5b336001600160a01b038516036103695760405162461bcd60e51b815260206004820152601760248201527f43616e6e6f74206469737075746520796f757273656c660000000000000000006044820152606401610308565b816103af5760405162461bcd60e51b8152602060048201526016602482015275526561736f6e2063616e6e6f7420626520656d70747960501b6044820152606401610308565b6103b98686610d68565b156104185760405162461bcd60e51b815260206004820152602960248201527f4469737075746520616c72656164792065786973747320666f722074686973206044820152686d696c6573746f6e6560b81b6064820152608401610308565b600254604051631e1e7e5960e31b8152600481018890526000916001600160a01b03169063f0f3f2c890602401600060405180830381865afa158015610462573d6000803e3d6000fd5b505050506040513d6000823e601f3d908101601f1916820160405261048a9190810190611aca565b805190915087146104d65760405162461bcd60e51b8152602060048201526016602482015275141c9bda9958dd08191bd95cc81b9bdd08195e1a5cdd60521b6044820152606401610308565b80602001516001600160a01b0316336001600160a01b0316148061050f575080604001516001600160a01b0316336001600160a01b0316145b6105715760405162461bcd60e51b815260206004820152602d60248201527f4f6e6c792070726f6a656374207061727469636970616e74732063616e20637260448201526c6561746520646973707574657360981b6064820152608401610308565b80602001516001600160a01b0316856001600160a01b031614806105aa575080604001516001600160a01b0316856001600160a01b0316145b6106075760405162461bcd60e51b815260206004820152602860248201527f526573706f6e64656e74206d75737420626520612070726f6a656374207061726044820152671d1a58da5c185b9d60c21b6064820152608401610308565b6106116001611531565b600061061c60015490565b6000818152600460208190526040909120828155600181018b9055600281018a9055600381018054336001600160a01b03199182161790915591810180549092166001600160a01b038a16179091559091506005810161067d868883611c69565b506008818101805461ffff1916905542600983015560008a815260056020908152604080832080546001818101835591855283852001879055338085526006845282852080548084018255908652848620018890558085526007845282852080548084018255908652848620018890556001600160a01b038d168086528386208054938401815586528486209092018890558e85529483528184208d855283529281902086905580519384529083019190915289918b9185917ffc7fbf4c318ba42af9b9bbbff385c82e86c3422dbbaf01ff414d0c96fa201ec7910160405180910390a450979650505050505050565b60008381526004602052604090208054841461079b5760405162461bcd60e51b815260040161030890611d2a565b60038101546001600160a01b03163314806107c2575060048101546001600160a01b031633145b6108245760405162461bcd60e51b815260206004820152602d60248201527f4f6e6c792064697370757465207061727469636970616e74732063616e20737560448201526c626d69742065766964656e636560981b6064820152608401610308565b6000600882015460ff16600381111561083f5761083f6117dc565b148061086357506001600882015460ff166003811115610861576108616117dc565b145b6108af5760405162461bcd60e51b815260206004820152601e60248201527f446973707574652063616e6e6f74206163636570742065766964656e636500006044820152606401610308565b816108fc5760405162461bcd60e51b815260206004820152601860248201527f45766964656e63652063616e6e6f7420626520656d70747900000000000000006044820152606401610308565b6006810161090b838583611c69565b506000600882015460ff166003811115610927576109276117dc565b0361093c5760088101805460ff191660011790555b837fa49e7517d2b5714f7812f718444c5a2931d4fc670ed2d2aa2426ff2f42c5b44d33858560405161097093929190611d5a565b60405180910390a250505050565b6000838152600460205260409020805484146109ac5760405162461bcd60e51b815260040161030890611d2a565b60048101546001600160a01b03163314610a145760405162461bcd60e51b815260206004820152602360248201527f4f6e6c7920726573706f6e64656e742063616e207375626d697420726573706f6044820152626e736560e81b6064820152608401610308565b6000600882015460ff166003811115610a2f57610a2f6117dc565b1480610a5357506001600882015460ff166003811115610a5157610a516117dc565b145b610a9f5760405162461bcd60e51b815260206004820152601f60248201527f446973707574652063616e6e6f742061636365707420726573706f6e736573006044820152606401610308565b81610aec5760405162461bcd60e51b815260206004820152601860248201527f526573706f6e73652063616e6e6f7420626520656d70747900000000000000006044820152606401610308565b60078101610afb838583611c69565b506000600882015460ff166003811115610b1757610b176117dc565b03610b2c5760088101805460ff191660011790555b837f41fb92c2126862d94183b833db10ef9201d43050b51c75d3a1d084ac4d621cc533858560405161097093929190611d5a565b6001600160a01b03811660009081526007602090815260409182902080548351818402810184019094528084526060939283018282801561023e576020028201919060005260206000209081548152602001906001019080831161022a5750505050509050919050565b600081815260046020526040902080548214610bf85760405162461bcd60e51b815260040161030890611d2a565b6002600882015460ff166003811115610c1357610c136117dc565b14158015610c3a57506003600882015460ff166003811115610c3757610c376117dc565b14155b610c945760405162461bcd60e51b815260206004820152602560248201527f4469737075746520616c7265616479207265736f6c766564206f722063616e63604482015264195b1b195960da1b6064820152608401610308565b60038101546001600160a01b0316331480610cb957506000546001600160a01b031633145b610d155760405162461bcd60e51b815260206004820152602760248201527f4f6e6c7920696e69746961746f72206f722061726269747261746f722063616e6044820152660818d85b98d95b60ca1b6064820152608401610308565b60088101805460ff19166003179055600181015460405183907f47f401adb157b05ca2460e795000b6c7ed325678dca7814dc22bbc26f2e2c00e90610d5c90600090611d9a565b60405180910390a35050565b600082815260086020908152604080832084845290915290205415155b92915050565b610d9361154e565b6000828152600460205260409020548214610dc05760405162461bcd60e51b815260040161030890611d2a565b6000828152600460208181526040928390208351610180810185528154815260018201549281019290925260028101549382019390935260038301546001600160a01b03908116606083015291830154909116608082015260058201805491929160a084019190610e3090611be0565b80601f0160208091040260200160405190810160405280929190818152602001828054610e5c90611be0565b8015610ea95780601f10610e7e57610100808354040283529160200191610ea9565b820191906000526020600020905b815481529060010190602001808311610e8c57829003601f168201915b50505050508152602001600682018054610ec290611be0565b80601f0160208091040260200160405190810160405280929190818152602001828054610eee90611be0565b8015610f3b5780601f10610f1057610100808354040283529160200191610f3b565b820191906000526020600020905b815481529060010190602001808311610f1e57829003601f168201915b50505050508152602001600782018054610f5490611be0565b80601f0160208091040260200160405190810160405280929190818152602001828054610f8090611be0565b8015610fcd5780601f10610fa257610100808354040283529160200191610fcd565b820191906000526020600020905b815481529060010190602001808311610fb057829003601f168201915b5050509183525050600882015460209091019060ff166003811115610ff457610ff46117dc565b6003811115611005576110056117dc565b81526020016008820160019054906101000a900460ff16600381111561102d5761102d6117dc565b600381111561103e5761103e6117dc565b815260098201546020820152600a9091015460409091015292915050565b6000546001600160a01b031633146110865760405162461bcd60e51b815260040161030890611dad565b6000828152600460205260409020805483146110b45760405162461bcd60e51b815260040161030890611d2a565b6001600882015460ff1660038111156110cf576110cf6117dc565b1461111c5760405162461bcd60e51b815260206004820152601860248201527f44697370757465206973206e6f7420696e2072657669657700000000000000006044820152606401610308565b6000826003811115611130576111306117dc565b0361117d5760405162461bcd60e51b815260206004820152601760248201527f496e76616c6964207265736f6c7574696f6e20747970650000000000000000006044820152606401610308565b6003546001820154600283015460405163764b5e1360e11b81526000936001600160a01b03169263ec96bc26926111bf92600401918252602082015260400190565b602060405180830381865afa1580156111dc573d6000803e3d6000fd5b505050506040513d601f19601f820116820180604052508101906112009190611dee565b600354604051633e8cf2cb60e11b8152600481018390529192506000916001600160a01b0390911690637d19e5969060240161010060405180830381865afa158015611250573d6000803e3d6000fd5b505050506040513d601f19601f820116820180604052508101906112749190611e12565b9050600184600381111561128a5761128a6117dc565b036112f35760035460405163356f9dfd60e01b8152600481018490526001600160a01b039091169063356f9dfd906024015b600060405180830381600087803b1580156112d657600080fd5b505af11580156112ea573d6000803e3d6000fd5b505050506113e1565b6002846003811115611307576113076117dc565b0361133d57600354604051633b594c5960e21b8152600481018490526001600160a01b039091169063ed653164906024016112bc565b6003846003811115611351576113516117dc565b036113e157600060028260a001516113699190611ebc565b6080830151600354604051639c17e43960e01b8152600481018790526001600160a01b0380841660248301526044820185905293945091921690639c17e43990606401600060405180830381600087803b1580156113c657600080fd5b505af11580156113da573d6000803e3d6000fd5b5050505050505b600883018054600260ff1982168117835586929161ffff191617610100836003811115611410576114106117dc565b021790555042600a840155600183015460405186907f47f401adb157b05ca2460e795000b6c7ed325678dca7814dc22bbc26f2e2c00e90611452908890611d9a565b60405180910390a35050505050565b6000546001600160a01b0316331461148b5760405162461bcd60e51b815260040161030890611dad565b6001600160a01b0381166114e15760405162461bcd60e51b815260206004820152601d60248201527f4e6577206f776e657220697320746865207a65726f20616464726573730000006044820152606401610308565b600080546001600160a01b038381166001600160a01b0319831681178455604051919092169283917f8be0079c531659141344cd1fd0a4f28419497f9722a3daafe3b4186f6b6457e09190a35050565b60018160000160008282546115469190611ede565b909155505050565b60405180610180016040528060008152602001600081526020016000815260200160006001600160a01b0316815260200160006001600160a01b03168152602001606081526020016060815260200160608152602001600060038111156115b7576115b76117dc565b81526020016000815260200160008152602001600081525090565b6000602082840312156115e457600080fd5b5035919050565b6020808252825182820181905260009190848201906040850190845b8181101561162357835183529284019291840191600101611607565b50909695505050505050565b6001600160a01b038116811461164457600080fd5b50565b60006020828403121561165957600080fd5b81356116648161162f565b9392505050565b60008083601f84011261167d57600080fd5b50813567ffffffffffffffff81111561169557600080fd5b6020830191508360208285010111156116ad57600080fd5b9250929050565b6000806000806000608086880312156116cc57600080fd5b853594506020860135935060408601356116e58161162f565b9250606086013567ffffffffffffffff81111561170157600080fd5b61170d8882890161166b565b969995985093965092949392505050565b60008060006040848603121561173357600080fd5b83359250602084013567ffffffffffffffff81111561175157600080fd5b61175d8682870161166b565b9497909650939450505050565b6000806040838503121561177d57600080fd5b50508035926020909101359150565b60005b838110156117a757818101518382015260200161178f565b50506000910152565b600081518084526117c881602086016020860161178c565b601f01601f19169290920160200192915050565b634e487b7160e01b600052602160045260246000fd5b6004811061164457634e487b7160e01b600052602160045260246000fd5b611819816117f2565b9052565b602081528151602082015260208201516040820152604082015160608201526000606083015161185860808401826001600160a01b03169052565b5060808301516001600160a01b03811660a08401525060a08301516101808060c085015261188a6101a08501836117b0565b915060c0850151601f19808685030160e08701526118a884836117b0565b935060e087015191506101008187860301818801526118c785846117b0565b945080880151925050506101206118e081870183611810565b86015190506101406118f486820183611810565b860151610160868101919091529095015193019290925250919050565b6004811061164457600080fd5b6000806040838503121561193157600080fd5b82359150602083013561194381611911565b809150509250929050565b634e487b7160e01b600052604160045260246000fd5b604051610140810167ffffffffffffffff811182821017156119885761198861194e565b60405290565b604051601f8201601f1916810167ffffffffffffffff811182821017156119b7576119b761194e565b604052919050565b80516119ca8161162f565b919050565b600082601f8301126119e057600080fd5b815167ffffffffffffffff8111156119fa576119fa61194e565b611a0d601f8201601f191660200161198e565b818152846020838601011115611a2257600080fd5b611a3382602083016020870161178c565b949350505050565b8051600581106119ca57600080fd5b600082601f830112611a5b57600080fd5b8151602067ffffffffffffffff821115611a7757611a7761194e565b8160051b611a8682820161198e565b9283528481018201928281019087851115611aa057600080fd5b83870192505b84831015611abf57825182529183019190830190611aa6565b979650505050505050565b600060208284031215611adc57600080fd5b815167ffffffffffffffff80821115611af457600080fd5b908301906101408286031215611b0957600080fd5b611b11611964565b82518152611b21602084016119bf565b6020820152611b32604084016119bf565b6040820152606083015182811115611b4957600080fd5b611b55878286016119cf565b606083015250608083015182811115611b6d57600080fd5b611b79878286016119cf565b60808301525060a083015160a082015260c083015160c082015260e083015160e0820152610100611bab818501611a3b565b908201526101208381015183811115611bc357600080fd5b611bcf88828701611a4a565b918301919091525095945050505050565b600181811c90821680611bf457607f821691505b602082108103611c1457634e487b7160e01b600052602260045260246000fd5b50919050565b601f821115611c6457600081815260208120601f850160051c81016020861015611c415750805b601f850160051c820191505b81811015611c6057828155600101611c4d565b5050505b505050565b67ffffffffffffffff831115611c8157611c8161194e565b611c9583611c8f8354611be0565b83611c1a565b6000601f841160018114611cc95760008515611cb15750838201355b600019600387901b1c1916600186901b178355611d23565b600083815260209020601f19861690835b82811015611cfa5786850135825560209485019460019092019101611cda565b5086821015611d175760001960f88860031b161c19848701351681555b505060018560011b0183555b5050505050565b602080825260169082015275111a5cdc1d5d1948191bd95cc81b9bdd08195e1a5cdd60521b604082015260600190565b6001600160a01b03841681526040602082018190528101829052818360608301376000818301606090810191909152601f909201601f1916010192915050565b60208101611da7836117f2565b91905290565b60208082526021908201527f4f6e6c79206f776e65722063616e2063616c6c20746869732066756e6374696f6040820152603760f91b606082015260800190565b600060208284031215611e0057600080fd5b5051919050565b80516119ca81611911565b6000610100808385031215611e2657600080fd5b6040519081019067ffffffffffffffff82118183101715611e4957611e4961194e565b8160405283518152602084015160208201526040840151604082015260608401519150611e758261162f565b816060820152611e87608085016119bf565b608082015260a084015160a0820152611ea260c08501611e07565b60c082015260e084015160e0820152809250505092915050565b600082611ed957634e487b7160e01b600052601260045260246000fd5b500490565b80820180821115610d8557634e487b7160e01b600052601160045260246000fdfea2646970667358221220f581056e2ca63720b31286e62b1b777bd6d3148514a13b89a1062c76757a8d7864736f6c63430008140033",
  "linkReferences": {},
  "deployedLinkReferences": {}
}